S01800006275696C642F6D6963617A2F6D61696E2E73726563E5
S11300000C9446000C9465000C9465000C946500F7
S11300100C9465000C9465000C9465000C946500C8
S11300200C9465000C9465000C9465000C946500B8
S11300300C9465000C9465000C9465000C943B03CF
S11300400C9465000C9465000C946A020C94650091
S11300500C9402080C9465000C9465000C946500E3
S11300600C9465000C9465000C9465000C94650078
S11300700C9465000C9465000C9465000C94650068
S11300800C9465000C9465000C94650011241FBE4B
S1130090CFEFD0E1DEBFCDBF12E0A0E0B1E0E0E8F9
S11300A0F4E500E00BBF02C007900D92A632B10741
S11300B0D9F71DE0A6E2B2E001C01D92A032B1075B
S11300C0E1F70E9474010C943F2A0C9400008FB74E
S11300D0F89499271092290CD29AD09AD19ADA9A44
S11300E0D89AD99A8FBF2FB7F89433271092250C3A
S11300F0109288061092360C1092350C1092F0096A
S11301001092EF0910922A028BEC96E09093550A14
S11301108093540A109292061092930687E49BE00F
S11301209093270C8093260C2FBF8FB7F8949927B0
S113013010928D068FBF089587B78C7FD1F46F9985
S113014018C080919A00887DA1F4379B03C088E091
S113015090E011C087B7992783709070892B19F4A8
S113016080E190E008C081B792B7891B803178F0B4
S113017012C080E090E0382F85B711C0000080B72E
S1130180992787709070892BC9F7822F08C025B7EB
S1130190237E3CE1F4CF25B7237E38E1F0CF837E84
S11301A0832B85BF85B7806285BF08958FBF08956F
S11301B08FB7F894992708952FB7F89433278FEEC3
S11301C093E09093440B8093430B2FBF8FB7F89425
S11301D0482F55272091420BE22FFF27EE0FFF1FD8
S11301E0ED50F64F80819181892B41F42F5F2F715F
S11301F02093420B82E996E0918380834FBF089558
S11302008091900190919101A0919201B0919301FC
S113021080302BE4920720E0A20720E0B20761F1CE
S113022081302BE4920720E0A20720E0B20770F4AB
S1130230803C22E1920720E0A20720E0B207A1F06F
S113024080589542A040B04051F512C0803021EE54
S1130250920720E0A20720E0B20791F08050924C70
S1130260A140B040E1F410C0109290008FEB0FC099
S1130270109290008FE50BC0109290008FE207C09F
S1130280109290008FE003C01092900087E089B92B
S113029082E08BB986E08093950088ED8AB9089551
S11302A01BB81AB8109295000895BC018FB7F89442
S11302B0482F55272091420BE22FFF27EE0FFF1FF7
S11302C0ED50F64F80819181892B51F42F5F2F716E
S11302D02093420B718360834FBF81E090E00895C7
S11302E04FBF80E090E00895CFEFD0E1DEBFCDBFF7
S11302F0D29AD09AD19AA79AA69AA59AA49AA39A7E
S1130300A29AA19AA09ABB98BA9AB99AD69AD59A5F
S1130310B89816988E988C98BF988E98D498DC9834
S1130320D39A8B9A8D9ADB9ADA9AD89AD99A8AE0D8
S113033080939A061092420B1092340AE3EFF9E08C
S11303401182108232968AE0E333F807C9F78FB737
S1130350F89499271092C9068FBF80912B028823A5
S113036071F581E080932B028FB7F894992710924E
S113037034021092350249EF4093360238ED30933F
S113038037022EE1209338021092390210923A0279
S113039010923B028FBF8FB7F89499278FBF1092AA
S11303A02C0210922D0240932E0230932F022093A0
S11303B030021092310210923202109233021092E3
S11303C0120D1092130D1092140D1092150D10921F
S11303D0450B8FEF80931B0D80935A021092F10905
S11303E083E08093460B96EE9093240C2FB7F894F9
S11303F0332787B78E7F87BF87B78D7F87BF80B747
S1130400886080BF8BE083BF12BE91BF87B78260D4
S113041087BF2FBFA09AA19A8FB7F894482F55276A
S11304202091420BE22FFF27EE0FFF1FED50F64FF6
S113043080819181892B41F42F5F2F712093420B8E
S113044087E690E0918380834FBF8FB7F894482F5D
S113045055272091420BE22FFF27EE0FFF1FED508F
S1130460F64F80819181892B41F42F5F2F71209366
S1130470420B8EEB94E1918380834FBF8FB7F89446
S113048099271092290CD29AD09AD19ADA9AD89AAA
S1130490D99A8FBF78948FB7F8942091340AE22FB9
S11304A0FF27EE0FFF1FED50F64F4081518141159C
S11304B0510529F47894889500000000ECCF11824E
S11304C010822F5F2F712093340A99278FBFFA016E
S11304D00995E1CF1F920F920FB60F9211242F931B
S11304E03F934F935F936F937F938F939F93AF93B8
S11304F0BF93EF93FF935F9BADC04CB18091250CEC
S1130500442309F4A7C0823009F4A4C0882389F5E0
S11305104D3009F49FC04A3009F49CC080912A02EE
S11305209927019664E070E00E94A02980932A0232
S113053029EC829FC00111249C012553394F30932B
S1130540550A2093540AF9018C56984F1192E817D2
S1130550F907E1F781E090E09093360C8093350C35
S1130560E091540AF091550A418381E08093250C6F
S113057071C0813009F06EC02091350C3091360C79
S1130580273C310508F05AC04D3059F0A091540A67
S1130590B091550AFD01E20FF31F80818E3309F0FB
S11305A050C082E08093250CF9013196F093360C0B
S11305B0E093350C8091540A9091550AE80FF91F85
S11305C04083E091540AF091550A8091350C808360
S11305D0E091540AF091550A8091350C9091360CB3
S11305E0E80FF91F118290912A02809193068430BA
S11305F060F4E0919206E80FFF27E370F070E25791
S1130600F94F90838F5F809393068FB7F894482FA8
S113061055272091420BE22FFF27EE0FFF1FED50CD
S1130620F64F80819181892B41F42F5F2F712093A4
S1130630420B80E594E0918380834FBF1092250C98
S113064009C0C90101969093360C8093350CA80F0C
S1130650B91F4C93FF91EF91BF91AF919F918F91EF
S11306607F916F915F914F913F912F910F900FBEAA
S11306700F901F90189578941F920F920FB60F92B7
S113068011247F928F929F92AF92BF92CF92DF926A
S1130690EF92FF920F931F932F933F934F935F9388
S11306A06F937F938F939F93AF93BF93EF93FF9336
S11306B0CF93DF93CDB7DEB72897F894DEBF789455
S11306C0CDBF9FB7F8948091F209882369F0809197
S11306D03F0B8093280C886080933F0B83BF8091ED
S11306E0330A81BF1092F209892F99278FBF7FB6F1
S11306F0F8948091400B9091410B892BC9F48FB7EA
S1130700F894482F55272091420BE22FFF27EE0F34
S1130710FF1FED50F64F80819181892B41F42F5FAB
S11307202F712093420B82ED94E0918380834FBF1D
S11307308091400B9091410B21B70196820F911D3E
S11307409093410B8093400B81B79927AA27BB272D
S113075089839A83AB83BC831D821E821F82188681
S11307608090340290903502A0903602B090370207
S1130770C0903802D0903902E0903A02F0903B02E7
S11307800981080D81E0081508F080E01A81190D2F
S1130790A1E0191508F0A0E0810F91E0811708F09D
S11307A090E0A92B182F2B812A0DB1E02A1508F00F
S11307B0B0E08A2F820F91E0821708F090E0B92B05
S11307C0282F3C813B0DA1E03B1508F0A0E08B2FC6
S11307D0830F91E0831708F090E0A92B382F4D8107
S11307E04C0DB1E04C1508F0B0E08A2F840F91E075
S11307F0841708F090E0B92B482F5E815D0DA1E0CD
S11308005D1508F0A0E08B2F850F91E0851708F0A7
S113081090E0A92B582F6F816E0DF1E06E1508F052
S1130820F0E09A2F960F81E0961708F080E08F2B66
S113083078857F0D870F009334021093350220933F
S11308403602309337024093380250933902909322
S11308503A0280933B02872D99278FBF2896F894FC
S1130860DEBFCDBFDF91CF91FF91EF91BF91AF91EB
S11308709F918F917F916F915F914F913F912F91B4
S11308801F910F91FF90EF90DF90CF90BF90AF90AA
S11308909F908F907F900F900FBE0F901F90189590
S11308A00F931F930FB7F8941127809192069927FD
S11308B0FC01E257F94F2081019664E070E00E9448
S11308C0A029809392068091930681508093930689
S11308D00FBF89EC289F900111242453394F809134
S11308E027029927982F8827B90188579D4F0E947E
S11308F02E263091270220919906243080F48FB758
S1130900F8949927E0919806E20FFF27E370F070BE
S1130910EC56F94F30832F5F209399068FBF832FB6
S11309209927019664E070E00E94A0298093270231
S11309308FB7F894482F55272091420BE22FFF27B9
S1130940EE0FFF1FED50F64F80819181892B41F40A
S11309502F5F2F712093420B84E19AE0918380836F
S11309604FBF8FB7F89499271092250C8FBF1F9112
S11309700F9108958FB7F89499271092530A8FBF57
S11309808FB7F89499271092370C8FBF08958FB7BB
S1130990F89499271092F0091092EF0910928806A2
S11309A08FBF08952F923F924F925F926F927F92E2
S11309B08F929F92AF92BF92CF92DF92EF92FF926B
S11309C00F931F93CF93DF93CDB7DEB723970FB663
S11309D0F894DEBF0FBECDBF81E08093450B8FB787
S11309E0F89499272091400B3091410B1092410BC0
S11309F01092400B8FBFE090120DF090130D0091F8
S1130A00140D1091150DE114F1040105110509F4FB
S1130A10A5C03090F10970911B0D86E59AE09B8387
S1130A208A83882499242901662477249091240CAC
S1130A309983282C81E0A82EB12CC12CD12C082C10
S1130A4004C0AA0CBB1CCC1CDD1C0A94D2F7D80130
S1130A50C7018A219B21AC21BD210097A105B105C5
S1130A6009F463C0EA81FB81258136814781508581
S1130A702419350946095709258336834783508746
S1130A8023303105410551050CF04FC08FB7F89460
S1130A90A82FBB276091420BE62FFF27EE0FFF1F05
S1130AA0ED50F64F80819181892B79F46F5F6F71DE
S1130AB06093420B80EB96E191838083AFBFEA8120
S1130AC0FB818081882371F01CC0AFBFF9818F2F17
S1130AD09927AA27BB27EA81FB8185839683A7836D
S1130AE0B08723C0EA81FB8181819281A381B48193
S1130AF0280F391F4A1F5B1F25833683478350877E
S1130B000AC0D601C50180959095A095B095E822BC
S1130B10F9220A231B23733009F47FEF7F5F339498
S1130B20E72FFF27E757F94F20820894811C911C77
S1130B308A819B8109969B838A8394E08916910418
S1130B4009F077CF3092F10970931B0DE092120DEA
S1130B50F092130D0093140D1093150D8FB7F894A4
S1130B6099272091400B3091410B8FBF232B09F023
S1130B707DC0E090120DF090130D0091140D1091B2
S1130B80150DE114F1040105110509F441C096EEB7
S1130B90992E60E070E0EBE5FAE081E0A82EB12C3C
S1130BA0C12CD12CD601C501062E04C0880F991F73
S1130BB0AA1FBB1F0A94D2F78E219F21A023B12321
S1130BC00097A105B10571F02081318142815381E3
S1130BD0892D9927AA27BB27281739074A075B07B6
S1130BE00CF4922E6F5F7F4F399664307105D1F605
S1130BF08FB7F894282F332792B79D5F991508F47F
S1130C00992D9093240C91BF1092450B2FBF0AC0CD
S1130C108FB7F894992726EE2093240C21BF1092C5
S1130C20450B8FBF809125028823D1F48FB7F894A8
S1130C30482F55272091420BE22FFF27EE0FFF1F6D
S1130C40ED50F64F80819181892B41F42F5F2F71F4
S1130C502093420B8CE990E0918380834FBF06C0C0
S1130C6085B7837E85BF85B7806285BF23960FB61F
S1130C70F894DEBF0FBECDBFDF91CF911F910F91CE
S1130C80FF90EF90DF90CF90BF90AF909F908F90A8
S1130C907F906F905F904F903F902F9008958FB703
S1130CA0F89499271092530A8FBF91E09093380CCF
S1130CB08091CA068823E9F090939B068FB7F89435
S1130CC0482F55272091420BE22FFF27EE0FFF1FDD
S1130CD0ED50F64F80819181892B51F42F5F2F7154
S1130CE02093420B89E999E0918380834FBF089553
S1130CF04FBF08958FB7F89499271092F009109276
S1130D00EF09109288068FBF08958FB7F89499273A
S1130D101092530A10922B0C10922A0C1092370C3A
S1130D208FBF08958FB7F89499278FBF8091530A86
S1130D308F3009F478C0803130F48D3041F08E303A
S1130D4009F0E0C03AC0823108F0DCC0A2C0809152
S1130D50120D9091130DA091140DB091150D82FFF9
S1130D6014C02FB7F89433278B7F8093120D909380
S1130D70130DA093140DB093150D2FBF0097A1056B
S1130D80B10519F481E08093450B8FB7F894482F8F
S1130D9055272091420BE22FFF27EE0FFF1FED5046
S1130DA0F64F80819181892B09F0A9C02F5F2F71A3
S1130DB02093420B85E896E0A0C08091120D90919B
S1130DC0130DA091140DB091150D82FF14C02FB70F
S1130DD0F89433278B7F8093120D9093130DA09377
S1130DE0140DB093150D2FBF0097A105B10519F48B
S1130DF081E08093450B8FB7F894482F55272091B5
S1130E00420BE22FFF27EE0FFF1FED50F64F8081BC
S1130E109181892B09F073C02F5F2F712093420BAE
S1130E2083E897E06AC08091120D9091130DA09110
S1130E30140DB091150D82FF14C02FB7F894332709
S1130E408B7F8093120D9093130DA093140DB09388
S1130E50150D2FBF0097A105B10519F481E080930A
S1130E60450B8FB7F894482F55272091420BE22F5A
S1130E70FF27EE0FFF1FED50F64F80819181892BE4
S1130E8009F03DC02F5F2F712093420B81E396E15F
S1130E9034C08091120D9091130DA091140DB09156
S1130EA0150D82FF14C02FB7F89433278B7F8093DE
S1130EB0120D9093130DA093140DB093150D2FBF25
S1130EC00097A105B10519F481E08093450B8FB714
S1130ED0F894482F55272091420BE22FFF27EE0F5D
S1130EE0FF1FED50F64F80819181892B51F42F5FC4
S1130EF02F712093420B88E395E1918380834FBF48
S1130F0008954FBF08957FB7F8941092530A109232
S1130F102B0C10922A0C1092370C8091430B909159
S1130F20440B8F5F9F4F09F069C084EF91E0A0E00C
S1130F30B0E08093570A9093580AA093590AB0934B
S1130F405A0A81E08093560A6FB7F89482B7282F23
S1130F503327442755272C503E4F4F4F5F4F209344
S1130F605B0A30935C0A40935D0A50935E0A809159
S1130F70120D9091130DA091140DB091150D816077
S1130F808093120D9093130DA093140DB093150D2F
S1130F908091240C9927AA27BB27281739074A07C9
S1130FA05B0748F52093240C21BF1092450B8091D8
S1130FB025028823D1F48FB7F894482F5527209120
S1130FC0420BE22FFF27EE0FFF1FED50F64F8081FB
S1130FD09181892B41F42F5F2F712093420B8CE96F
S1130FE090E0918380834FBF06C085B7837E85BF21
S1130FF085B7806285BF862F99278FBF872F992752
S11310008FBF089578941F920F920FB60F921124F8
S11310102F933F934F935F936F937F938F939F93FC
S1131020EF93FF938FB7F894992720918D06109230
S11310308D068FBF222309F455C03FB7F894609101
S11310401E0D70911F0D8091EF099091F009861784
S1131050970721F5809188068230D1F48FB7F894F0
S1131060482F55272091420BE22FFF27EE0FFF1F39
S1131070ED50F64F80819181892B41F42F5F2F71C0
S11310802093420B87EC94E0918380834FBF06C08A
S11310901092F0091092EF0910928806832F992775
S11310A08FBF4FB7F8942091EF093091F0092115C3
S11310B03105A9F02617370790F4E091260CF0913A
S11310C0270CE20FF31F90812F5F3F4F3093F009FD
S11310D02093EF0981E080938D069CB95E9A842F5A
S11310E099278FBFFF91EF919F918F917F916F917E
S11310F05F914F913F912F910F900FBE0F901F90D2
S113110018958FB7F89499278FBF8091530A81312E
S113111050F48E3008F00CC18C3009F409C18D30C4
S113112009F079C004C0813109F075C036C08091DE
S1131130120D9091130DA091140DB091150D82FF15
S113114014C02FB7F89433278B7F8093120D90939C
S1131150130DA093140DB093150D2FBF0097A10587
S1131160B10519F481E08093450B8FB7F894482FAB
S113117055272091420BE22FFF27EE0FFF1FED5062
S1131180F64F80819181892B09F043C02F5F2F7125
S11311902093420B8AEB94E03AC08091120D909117
S11311A0130DA091140DB091150D82FF14C02FB72B
S11311B0F89433278B7F8093120D9093130DA09393
S11311C0140DB093150D2FBF0097A105B10519F4A7
S11311D081E08093450B8FB7F89499271092370CD0
S11311E08FBF8FB7F894482F55272091420BE22FD9
S11311F0FF27EE0FFF1FED50F64F80819181892B61
S113120041F42F5F2F712093420B81EC95E1918380
S113121080834FBF08958091120D9091130DA0917A
S1131220140DB091150D82FF14C02FB7F894332715
S11312308B7F8093120D9093130DA093140DB09394
S1131240150D2FBF0097A105B10519F481E0809316
S1131250450B8FB7F89499271092370C8FBF84EF02
S113126091E0A0E0B0E08093600A9093610AA093BB
S1131270620AB093630A81E080935F0A6FB7F894BF
S113128082B7282F3327442755272C503E4F4F4FE2
S11312905F4F2093640A3093650A4093660A509323
S11312A0670A8091120D9091130DA091140DB091C5
S11312B0150D82608093120D9093130DA093140D5D
S11312C0B093150D8091240C9927AA27BB272817C2
S11312D039074A075B0748F52093240C21BF109275
S11312E0450B809125028823D1F48FB7F894482FB9
S11312F055272091420BE22FFF27EE0FFF1FED50E1
S1131300F64F80819181892B41F42F5F2F712093B7
S1131310420B8CE990E0918380834FBF06C085B770
S1131320837E85BF85B7806285BF862F99278FBF4F
S113133008952FB7F8943327DA988091290C8160A7
S11313408093290C2FBF8FB7F894992722E020931C
S1131350C9068FBF84E690E0A0E0B0E08093570A0E
S11313609093580AA093590AB0935A0A81E0809343
S1131370560A6FB7F89482B7282F33274427552786
S11313802C593F4F4F4F5F4F20935B0A30935C0AB9
S113139040935D0A50935E0A8091120D9091130D53
S11313A0A091140DB091150D81608093120D90934E
S11313B0130DA093140DB093150D8091240C99274F
S11313C0AA27BB27281739074A075B0748F5209344
S11313D0240C21BF1092450B809125028823D1F45F
S11313E08FB7F894482F55272091420BE22FFF27FF
S11313F0EE0FFF1FED50F64F80819181892B41F450
S11314002F5F2F712093420B8CE990E091838083AE
S11314104FBF06C085B7837E85BF85B7806285BF11
S1131420862F99278FBF08955F926F927F928F9234
S11314309F92AF92BF92CF92DF92EF92FF920F935F
S11314401F93CF93DF93CDB7DEB7C452D1400FB60D
S1131450F894DEBF0FBECDBF5FB6F89480919806B6
S11314609927FC01EC56F94F2081019664E070E065
S11314700E94A029809398068091990681508093B8
S113148099063327F22EEE2428E832E0E20EF31E0A
S113149060E071E0C7010E9454269C01892BA9F1E8
S11314A08CE19DE09F938F9387E091E09F938F93CE
S11314B02A5F3F4F3F932F930E94A8262FB7F8949B
S11314C0332780911C0D90911D0D9093440B8093B4
S11314D0430B2FBF8FB7F894482F55272091420B09
S11314E0E22FFF27EE0FFF1FED50F64F8081918111
S11314F06DB77EB76A5F7F4F0FB6F8947EBF0FBE9D
S11315006DBF892B09F076C509C06AE071E0C70197
S11315100E945426892B09F06FC507C02F5F2F71D5
S11315202093420B82E996E063C56DE071E0C70148
S11315300E945426892B09F070C507C02F5F2F71B4
S11315402093420B81E898E053C560E171E0C70144
S11315500E945426892B09F005C1EEC18091120D19
S11315609091130DA091140DB091150D82FF14C02C
S11315702FB7F89433278B7F8093120D9093130D1C
S1131580A093140DB093150D2FBF0097A105B105BD
S113159019F481E08093450B81E18093530A6BE653
S11315A0E62E6CE0F62E6AE97AE0C7010E942E2648
S11315B067E171E0C7010E941826F0922B0CE092BB
S11315C02A0C80E69AEEA0E0B0E08093690A90933A
S11315D06A0AA0936B0AB0936C0A81E08093680A4C
S11315E06FB7F89482B7282F332744275527205AFA
S11315F035414F4F5F4F20936D0A30936E0A4093ED
S11316006F0A5093700A8091120D9091130DA0915E
S1131610140DB091150D84608093120D9093130DE9
S1131620A093140DB093150D8091240C9927AA272B
S1131630BB27281739074A075B0748F52093240C72
S113164021BF1092450B809125028823D1F48FB7D6
S1131650F894482F55272091420BE22FFF27EE0FD5
S1131660FF1FED50F64F80819181892B41F42F5F4C
S11316702F712093420B8CE990E0918380834FBFBC
S113168006C085B7837E85BF85B7806285BF862FF8
S113169099278FBFF70101900020E9F73197EB56A6
S11316A0FC40DE2E8E010B5D1F4F6BE67CE0C80113
S11316B00E942E2669E171E0C8010E945426892BFC
S11316C031F1AE014D5F5F4F60E271E0C8010E94ED
S11316D06E260E94FA25809328028823C1F08FB7D2
S11316E0F894482F55272091420BE22FFF27EE0F45
S11316F0FF1FED50F64F80819181892B09F07AC448
S11317002F5F2F712093420B8CED90E071C482E027
S1131710809388068091EF099091F009892B09F054
S113172095C481E090E09093F0098093EF098D2DAA
S1131730992790931F0D80931E0DF092270CE09231
S1131740260C20916B0C90918D0681E080938D0680
S1131750992319F42CB95E9A79C41092F009109265
S1131760EF0974C46AE370E0C7010E942326FC01F8
S11317709C012F5F3F4F8181882309F4D2C0D90196
S11317800D900020E9F7A21BB30B129790E040E004
S113179050E008C0E20FF31F80818C3209F49F5F90
S11317A04F5F5F4FE42FFF27EA17FB0798F3892F5A
S11317B099278230D9F0833009F462C0813009F06E
S11317C0B0C08E010D5F1F4FA80162E271E0C90134
S11317D00E946E26A80162E271E080E090E00E941F
S11317E06E260E94FA2580932C0C9DC08E010D5FFD
S11317F01F4FA80162E271E0C9010E946E260E9497
S1131800FA2580932C0CA80162E271E080E090E05C
S11318100E946E269E012F5F3F4F3F932F9324E239
S1131820E22E21E0F22EFF92EF929F938F930E947B
S1131830A82689819A819093300C80932F0CA8015B
S113184062E271E080E090E00E946E269E012B5FD0
S11318503F4F3F932F93FF92EF929F938F930E945A
S1131860A8268D819E8190932E0C80932D0C8DB78C
S11318709EB70C960FB6F8949EBF0FBE8DBFD2C311
S11318808E010D5F1F4FA80162E271E0C9010E9441
S11318906E26A80162E271E080E090E00E946E266C
S11318A00E94FA2580932C0CA80162E271E080E08A
S11318B090E00E946E269E012F5F3F4F3F932F932F
S11318C0B4E2EB2EB1E0FB2EFF92EF929F938F9345
S11318D00E94A82689819A819093300C80932F0CC2
S11318E0A80162E271E080E090E00E946E269E0111
S11318F02B5F3F4F3F932F93FF92EF929F938F93D2
S11319000E94A8268D819E8190932E0C80932D0C8D
S1131910ADB7BEB71C960FB6F894BEBF0FBEADBF31
S113192081C310922C0C1092300C10922F0C109238
S11319302E0C10922D0C76C367E271E0C7010E9451
S11319405426892BF9F44EC081918D932CE0E13318
S1131950F207D1F78FB7F894482F55272091420BFF
S1131960E22FFF27EE0FFF1FED50F64F808191818C
S1131970892B09F03FC32F5F2F712093420B86E719
S113198091E136C38E010D5F1F4FA8016DE271E036
S1131990C7010E946E26A80162E271E080E090E037
S11319A00E946E260E94FA258093980AA8016FE28D
S11319B071E080E090E00E946E260E94FA258093F8
S11319C0990A2091980A2093100D8093110D80910B
S11319D0120D9091130DA091140DB091150D82FD6F
S11319E009C01CC061E371E0C7010E945426892B21
S11319F079F52CC32FB7F89433278B7F8093120D7E
S1131A009093130DA093140DB093150D2FBF009751
S1131A10A105B10519F481E08093450B1092370CB0
S1131A208FB7F894482F55272091420BE22FFF27B8
S1131A30EE0FFF1FED50F64F80819181892B09F045
S1131A40D9C22F5F2F712093420B8EED93E1D0C248
S1131A5080912802882309F0F9C26AE370E0C70183
S1131A600E9423266C010894C11CD11C68E371E018
S1131A70C6010E9454264C01009709F4E7C28C0168
S1131A800C191D0961E1E62EF12CEC0EFD1EA801D6
S1131A90B601C7010E9445260E0D1F1DD8011C92D8
S1131AA0F70101900020E9F70E2F0E19025080E093
S1131AB090E0282FF701E80FF11DE081E03239F0C2
S1131AC0E93029F0ED3019F0EA3009F0B0C22F5FA7
S1131AD00196081770F710C0002371F0FE01E00FA3
S1131AE0F11D8189803231F0893021F08D3011F07F
S1131AF08A3011F40150F0CF021B0F5F19F40EE38A
S1131B0011E011C01127BE016F5E7F4F620F711D7E
S1131B10A80189E39CE00E944526075C134FF80165
S1131B20108209E31CE05CE3E52E52E0F52EB801D7
S1131B30C7010E942E266FE371E0C8010E9454265B
S1131B408C01009709F494C063E471E00E94542668
S1131B505C01892B09F48CC0B8016D5F7F4F83E46D
S1131B6080933C028501061B170BA801C70101964F
S1131B700E9445260E0D1F1DF8011182F7010190E8
S1131B800020E9F73197EE19FF090E2F015080E08C
S1131B9090E0682FE82FFF27E45CFD4FE081E032FE
S1131BA039F0E93029F0ED3019F0EA3009F043C298
S1131BB06F5F0196081768F711C0002379F0E02FD2
S1131BC0FF27E45CFD4FE081E03231F0E93021F0A1
S1131BD0ED3011F0EA3011F40150EFCF061B0F5F26
S1131BE019F46EE371E00FC011277727645C7D4F11
S1131BF0A80189E39CE00E944526075C134FD801A5
S1131C001C9269E37CE04CE3C42E42E0D42EC6016E
S1131C100E942E2667E471E0C6010E94182633E074
S1131C20E32EF12CEA0CFB1C68E371E0C7010E946F
S1131C3054268C010097C1F0F60101900020E9F7C9
S1131C403197EC19FD09BE2EAC014E195F09B7019D
S1131C50C6010E9435260B0D111D0E191F090C0D0E
S1131C601D1DF801108204C0B701C6010E94182688
S1131C7020E030E0E22FFF27E45CFD4F80818032DA
S1131C8039F0893029F08D3019F08A3009F0D7C144
S1131C902F5F822F9927ECE3F2E001900020E9F70F
S1131CA03197EC53F240E817F90720F710923E0AF7
S1131CB065E37AE08CE996E00E942E2625E0E22E88
S1131CC0F12CE80CF91C69E471E0C7010E94542668
S1131CD06C01009709F4BAC18C010E191F0991E136
S1131CE0A92EB12CAC0EBD1EA801B701C5010E94DE
S1131CF045260A0D1B1DD8011C92CE0109969F93FF
S1131D008F9384E2882E81E0982E9F928F92BF92C7
S1131D10AF920E94A82689858093A40607E0E02E4E
S1131D20F12CEC0CFD1C61E571E0C7010E94542606
S1131D306C01EDB7FEB736960FB6F894FEBF0FBE32
S1131D40EDBF009709F482C18C010E191F09A80187
S1131D50B701C5010E9445260A0D1B1DD8011C921E
S1131D60CE010B969F938F9317E0612E11E0712E95
S1131D707F926F92BF92AF920E94A826B4E0EB2E9E
S1131D80F12CEC0CFD1C66E571E0C7010E945426A1
S1131D906C01EDB7FEB736960FB6F894FEBF0FBED2
S1131DA0EDBF009709F452C18C010E191F09A80157
S1131DB0B701C5010E9445260A0D1B1DD8011C92BE
S1131DC0CE010D969F938F939F928F92BF92AF9265
S1131DD00E94A8268D859E859093A6068093A506CD
S1131DE0A3E0EA2EF12CEC0CFD1C6AE571E0C701BE
S1131DF00E9454266C01EDB7FEB736960FB6F894E0
S1131E00FEBF0FBEEDBF009709F420C18C010E196F
S1131E101F09A801B701C5010E9445260A0D1B1D13
S1131E20D8011C92CE010F969F938F939F928F920D
S1131E30BF92AF920E94A8268F8598899093A80696
S1131E408093A706F6E0EF2EF12CEC0CFD1C61E666
S1131E5071E0C7010E9454266C01EDB7FEB73696B7
S1131E600FB6F894FEBF0FBEEDBF009709F4EEC0A5
S1131E708C010E191F09A801B701C5010E9445264E
S1131E800A0D1B1DD8011C92CE0105969F938F93BA
S1131E907F926F92BF92AF920E94A8268D819E81FD
S1131EA09093AA068093A906E4E0EE2EF12CEC0CA4
S1131EB0FD1C66E671E0C7010E945426EDB7FEB72B
S1131EC036960FB6F894FEBF0FBEEDBF009709F427
S1131ED0BDC08C010E191F09A801B701C5010E94DC
S1131EE045260A0D1B1DD8011C92CE0107969F930F
S1131EF08F937F926F92BF92AF920E94A8266AE658
S1131F0071E0C7010E945426EDB7FEB736960FB6AE
S1131F10F894FEBF0FBEEDBF009709F497C0FC0113
S1131F203396DF010D900020E9F78D010150104038
S1131F300E1B1F0BA801BF01C5010E9445260A0DF7
S1131F401B1DF8011082CE0101969F938F937F92FF
S1131F506F92BF92AF920E94A82610922902ABE51D
S1131F60B2E0ECE9F6E02DB73EB72A5F3F4F0FB67B
S1131F70F8943EBF0FBE2DBF81918D9336E0E93CAE
S1131F80F307D1F78091120D9091130DA091140DC8
S1131F90B091150D82FF14C02FB7F89433278B7FAF
S1131FA08093120D9093130DA093140DB093150DFF
S1131FB02FBF0097A105B10519F481E08093450B6B
S1131FC01092370C8FB7F894482F55272091420B65
S1131FD0E22FFF27EE0FFF1FED50F64F8081918116
S1131FE0892B41F42F5F2F712093420B8EE494E1EF
S1131FF0918380834FBF2AC08FB7F894482F552709
S11320002091420BE22FFF27EE0FFF1FED50F64FFA
S113201080819181892B71F791CA8091530A803113
S1132020A9F49CCAA6E1BDE0ECE2FCE08DCC081763
S113203008F052CD61CD081708F0BFCDCFCDE32F06
S1132040FF27EB5CF54F80833F5F22CE852D9927D8
S11320508FBFCC5DDE4F0FB6F894DEBF0FBECDBF91
S1132060DF91CF911F910F91FF90EF90DF90CF9070
S1132070BF90AF909F908F907F906F905F900895E6
S1132080CF92DF92EF92FF920F931F93CF93DF9340
S1132090CDB7DEB7C250D1400FB6F894DEBF0FBE45
S11320A0CDBF8FB7F89499278FBF8091530A8031A1
S11320B019F0813159F405C088EE93E0A0E0B0E056
S11320C009C080E69AEEA0E0B0E004C080E098E0A9
S11320D0A0E0B0E08093310C9093320CA093330CC9
S11320E0B093340C2091310C3091320C4091330C6C
S11320F05091340C2093690A30936A0A40936B0A16
S113210050936C0A81E08093680A6FB7F89482B7A1
S1132110280F311D411D511D20936D0A30936E0A05
S113212040936F0A5093700A8091120D9091130D91
S1132130A091140DB091150D84608093120D9093AD
S1132140130DA093140DB093150D8091240C9927B1
S1132150AA27BB27281739074A075B0748F52093A6
S1132160240C21BF1092450B809125028823D1F4C1
S11321708FB7F894482F55272091420BE22FFF2761
S1132180EE0FFF1FED50F64F80819181892B41F4B2
S11321902F5F2F712093420B8CE990E09183808311
S11321A04FBF06C085B7837E85BF85B7806285BF74
S11321B0862F99278FBF8FB7F894C82E00912A0CC9
S11321C010912B0CF80101900020E9F73197DE2ED5
S11321D0D01AB3E0EB2EF12CEC0EFD1EB801C701B2
S11321E00E942E2669E171E0C7010E945426892BC2
S11321F051F1AE014F5F5F4F60E271E0C7010E9491
S11322006E260E94FA25809328028823E1F08FB776
S1132210F894482F55272091420BE22FFF27EE0F09
S1132220FF1FED50F64F80819181892B41F42F5F80
S11322302F712093420B8CED90E0918380834FBFEC
S1132240CFBE40E031C082E0809388068091EF09E0
S11322509091F009892B11F581E090E09093F009B9
S11322608093EF098D2D992790931F0D80931E0D58
S11322701093270C0093260CF801608190918D0631
S113228081E080938D06992329F46CB95E9A81E0EC
S113229090E006C01092F0091092EF0980E090E0FF
S11322A0482FCFBE882381F48FB7F89499271092D2
S11322B0530A8FBF2FB7F894332789EE93E0909396
S11322C0440B8093430B2FBF842F9927CE5FDE4F9F
S11322D00FB6F894DEBF0FBECDBFDF91CF911F9133
S11322E00F91FF90EF90DF90CF9008958FB7F894FF
S11322F099278FBF8091530A8C3009F08DC080914B
S1132300120D9091130DA091140DB091150D82FF33
S113231014C02FB7F89433278B7F8093120D9093BA
S1132320130DA093140DB093150D2FBF0097A105A5
S1132330B10519F481E08093450B8FB7F894992780
S11323401092370C8FBF84EF91E0A0E0B0E080934F
S1132350600A9093610AA093620AB093630A81E0D1
S113236080935F0A6FB7F89482B7282F33274427E6
S113237055272C503E4F4F4F5F4F2093640A3093A4
S1132380650A4093660A5093670A8091120D9091F2
S1132390130DA091140DB091150D82608093120D50
S11323A09093130DA093140DB093150D8091240CEC
S11323B09927AA27BB27281739074A075B0748F537
S11323C02093240C21BF1092450B80912502882371
S11323D0D1F48FB7F894482F55272091420BE22F60
S11323E0FF27EE0FFF1FED50F64F80819181892B5F
S11323F041F42F5F2F712093420B8CE990E091837D
S113240080834FBF06C085B7837E85BF85B7806252
S113241085BF862F99278FBF8091160D813011F0CB
S1132420853039F591E09093CA068091380C882361
S113243011F180919B068823F1F490939B068FB74A
S1132440F894482F55272091420BE22FFF27EE0FD7
S1132450FF1FED50F64F80819181892B41F42F5F4E
S11324602F712093420B89E999E0918380834FBFB8
S113247008951092CA0608957FB7F8948091120DBA
S11324809091130DA091140DB091150D82FF14C0FD
S11324902FB7F89433278B7F8093120D9093130DED
S11324A0A093140DB093150D2FBF0097A105B1058E
S11324B019F481E08093450B1092530A10922B0C6F
S11324C010922A0C1092CA0610929B061092380C95
S11324D01092370C4091430B5091440B2FB7F89452
S11324E03327DA988091290C81608093290C2FBFBF
S11324F04F5F5F4F09F070C08FB7F894992722E0BF
S11325002093C9068FBF84E690E0A0E0B0E08093FA
S1132510570A9093580AA093590AB0935A0A81E033
S11325208093560A6FB7F89482B7282F332744272D
S113253055272C593F4F4F4F5F4F20935B0A3093E1
S11325405C0A40935D0A50935E0A8091120D90914B
S1132550130DA091140DB091150D81608093120D8F
S11325609093130DA093140DB093150D8091240C2A
S11325709927AA27BB27281739074A075B0748F575
S11325802093240C21BF1092450B809125028823AF
S1132590D1F48FB7F894482F55272091420BE22F9E
S11325A0FF27EE0FFF1FED50F64F80819181892B9D
S11325B041F42F5F2F712093420B8CE990E09183BB
S11325C080834FBF06C085B7837E85BF85B7806291
S11325D085BF862F99278FBF872F99278FBF08958F
S11325E07FB7F8948FB7F894482F55272091420B62
S11325F0E22FFF27EE0FFF1FED50F64F80819181F0
S1132600892B41F42F5F2F712093420B80E591E0D9
S1132610918380834FBF8091120D9091130DA091EF
S1132620140DB091150D81FF11C02FB7F894332705
S11326308D7F8093120D9093130DA093140DB0937E
S1132640150D2FBF0097A105B105B1F18091120DB1
S11326509091130DA091140DB091150D82FF11C02E
S11326602FB7F89433278B7F8093120D9093130D1B
S1132670A093140DB093150D2FBF0097A105B105BC
S1132680D9F08091120D9091130DA091140DB09179
S1132690150D83FF14C02FB7F8943327877F8093D9
S11326A0120D9093130DA093140DB093150D2FBF1D
S11326B00097A105B10519F481E08093450BA89812
S11326C0A9981092530A10922B0C10922A0C109273
S11326D0CA0610929B061092380C1092370C21E017
S11326E02093C90680E593ECA0E0B0E08093570AFC
S11326F09093580AA093590AB0935A0A2093560A01
S11327006FB7F89482B7282F332744275527205BC7
S11327103C434F4F5F4F20935B0A30935C0A4093D6
S11327205D0A50935E0A8091120D9091130DA09151
S1132730140DB091150D81608093120D9093130DBB
S1132740A093140DB093150D8091240C9927AA27FA
S1132750BB27281739074A075B0748F52093240C41
S113276021BF1092450B809125028823D1F48FB7A5
S1132770F894482F55272091420BE22FFF27EE0FA4
S1132780FF1FED50F64F80819181892B41F42F5F1B
S11327902F712093420B8CE990E0918380834FBF8B
S11327A006C085B7837E85BF85B7806285BF862FC7
S11327B099278FBF872F99278FBF08958FB7F894D4
S11327C099271092530A8FBF84EF91E0A0E0B0E004
S11327D08093570A9093580AA093590AB0935A0ABF
S11327E081E08093560A6FB7F89482B7282F332775
S11327F0442755272C503E4F4F4F5F4F20935B0A81
S113280030935C0A40935D0A50935E0A8091120DE6
S11328109091130DA091140DB091150D81608093CA
S1132820120D9093130DA093140DB093150D809178
S1132830240C9927AA27BB27281739074A075B07BF
S113284048F52093240C21BF1092450B809125025A
S11328508823D1F48FB7F894482F55272091420B41
S1132860E22FFF27EE0FFF1FED50F64F808191817D
S1132870892B41F42F5F2F712093420B8CE990E058
S1132880918380834FBF06C085B7837E85BF85B79C
S1132890806285BF862F99278FBF08958FB7F894DC
S11328A099271092530A8FBF84EF91E0A0E0B0E023
S11328B08093570A9093580AA093590AB0935A0ADE
S11328C081E08093560A6FB7F89482B7282F332794
S11328D0442755272C503E4F4F4F5F4F20935B0AA0
S11328E030935C0A40935D0A50935E0A8091120D06
S11328F09091130DA091140DB091150D81608093EA
S1132900120D9093130DA093140DB093150D809197
S1132910240C9927AA27BB27281739074A075B07DE
S113292048F52093240C21BF1092450B8091250279
S11329308823D1F48FB7F894482F55272091420B60
S1132940E22FFF27EE0FFF1FED50F64F808191819C
S1132950892B41F42F5F2F712093420B8CE990E077
S1132960918380834FBF06C085B7837E85BF85B7BB
S1132970806285BF862F99278FBF08952FB7F8945B
S11329803327D9988091290C82608093290C2FBF1A
S11329908FB7F894992721E02093C9068FBF84E666
S11329A090E0A0E0B0E08093570A9093580AA09377
S11329B0590AB0935A0A2093560A6FB7F89482B70B
S11329C0282F3327442755272C593F4F4F4F5F4F0C
S11329D020935B0A30935C0A40935D0A50935E0A2D
S11329E08091120D9091130DA091140DB091150DBD
S11329F081608093120D9093130DA093140DB093E6
S1132A00150D8091240C9927AA27BB27281739076D
S1132A104A075B0748F52093240C21BF1092450B0D
S1132A20809125028823D1F48FB7F894482F552735
S1132A302091420BE22FFF27EE0FFF1FED50F64FC0
S1132A4080819181892B41F42F5F2F712093420B58
S1132A508CE990E0918380834FBF06C085B7837E65
S1132A6085BF85B7806285BF862F99278FBF08955C
S1132A70DF92EF92FF920F931F93DFB6F8941092B8
S1132A80530A10922B0C10922A0C1092370CE090DF
S1132A90120DF090130D0091140D1091150D60910D
S1132AA0240C84EF91E0A0E0B0E08093570A909367
S1132AB0580AA093590AB0935A0A81E08093560A9F
S1132AC07FB7F89482B7282F3327442755272C50F3
S1132AD03E4F4F4F5F4F20935B0A30935C0A409305
S1132AE05D0A50935E0A81E090E0A0E0B0E0E82A3D
S1132AF0F92A0A2B1B2BE092120DF092130D00936E
S1132B00140D1093150D862F9927AA27BB27281774
S1132B1039074A075B0748F52093240C21BF10921C
S1132B20450B809125028823D1F48FB7F894482F60
S1132B3055272091420BE22FFF27EE0FFF1FED5088
S1132B40F64F80819181892B41F42F5F2F7120935F
S1132B50420B8CE990E0918380834FBF06C085B718
S1132B60837E85BF85B7806285BF872F99278FBFF6
S1132B708D2D99278FBF1F910F91FF90EF90DF90BC
S1132B8008958FB7F89499271092530A8FBF84EF52
S1132B9091E0A0E0B0E08093570A9093580AA09384
S1132BA0590AB0935A0A81E08093560A6FB7F89491
S1132BB082B7282F3327442755272C503E4F4F4F99
S1132BC05F4F20935B0A30935C0A40935D0A5093F5
S1132BD05E0A8091120D9091130DA091140DB09185
S1132BE0150D81608093120D9093130DA093140D15
S1132BF0B093150D8091240C9927AA27BB27281779
S1132C0039074A075B0748F52093240C21BF10922B
S1132C10450B809125028823D1F48FB7F894482F6F
S1132C2055272091420BE22FFF27EE0FFF1FED5097
S1132C30F64F80819181892B41F42F5F2F7120936E
S1132C40420B8CE990E0918380834FBF06C085B727
S1132C50837E85BF85B7806285BF862F99278FBF06
S1132C6008957FB7F8941092530A10922B0C109287
S1132C702A0C1092370C8091430B9091440B8F5F78
S1132C809F4F09F069C084EF91E0A0E0B0E0809329
S1132C90570A9093580AA093590AB0935A0A81E0AC
S1132CA08093560A6FB7F89482B7282F33274427A6
S1132CB055272C503E4F4F4F5F4F20935B0A309364
S1132CC05C0A40935D0A50935E0A8091120D9091C4
S1132CD0130DA091140DB091150D81608093120D08
S1132CE09093130DA093140DB093150D8091240CA3
S1132CF09927AA27BB27281739074A075B0748F5EE
S1132D002093240C21BF1092450B80912502882327
S1132D10D1F48FB7F894482F55272091420BE22F16
S1132D20FF27EE0FFF1FED50F64F80819181892B15
S1132D3041F42F5F2F712093420B8CE990E0918333
S1132D4080834FBF06C085B7837E85BF85B7806209
S1132D5085BF862F99278FBF872F99278FBF089507
S1132D60BF92CF92DF92EF92FF920F931F93CF9374
S1132D70DF93CDB7DEB7C250D1400FB6F894DEBFB3
S1132D800FBECDBF9091F109992311F40C94E9255C
S1132D9080915A02833019F48FEF80935A02E091A4
S1132DA05A02EF5FE0935A0291509093F109FF2782
S1132DB0E757F94F8081682F7727643010F00C941F
S1132DC0E925613009F437C4613050F0623011F400
S1132DD00C949A23633011F00C94E9250C94C625C5
S1132DE08091C906833009F486C2843038F4813076
S1132DF069F0823011F00C94E925E9C0843009F4BB
S1132E0013C3853011F00C94E925D2C38FB7F8941D
S1132E102091290C22FF03C0D89A2B7F02C0D89896
S1132E2024602093290C99278FBF8FB7F894482FDB
S1132E3055272091420BE22FFF27EE0FFF1FED5085
S1132E40F64F80819181892B41F42F5F2F7120935C
S1132E50420B80E091E0918380834FBF8FB7F89459
S1132E6099271092370C8FBF2FB7F89433278FEF21
S1132E709FEF9093440B8093430B2FBF1092CA068D
S1132E8010929B061092380C8FB7F89499271092E1
S1132E902B0C10922A0C8FBF8FB7F894992721E03E
S1132EA02093530A8FBF84E690E0A0E0B0E08093C3
S1132EB0600A9093610AA093620AB093630A209314
S1132EC05F0A6FB7F89482B7282F33274427552712
S1132ED02C593F4F4F4F5F4F2093640A3093650A3C
S1132EE04093660A5093670A8091120D9091130DD6
S1132EF0A091140DB091150D82608093120D9093E2
S1132F00130DA093140DB093150D8091240C9927E3
S1132F10AA27BB27281739074A075B0748F52093D8
S1132F20240C21BF1092450B809125028823D1F4F3
S1132F308FB7F894482F55272091420BE22FFF2793
S1132F40EE0FFF1FED50F64F80819181892B41F4E4
S1132F502F5F2F712093420B8CE990E09183808343
S1132F604FBF06C085B7837E85BF85B7806285BFA6
S1132F70862F99278FBF80EC94EDA1E0B0E0809379
S1132F80720A9093730AA093740AB093750A81E04D
S1132F908093710A6FB7F89482B7282F3327442798
S1132FA0552720543B424E4F5F4F2093760A30936F
S1132FB0770A4093780A5093790A8091120D909180
S1132FC0130DA091140DB091150D8860E2C38FB755
S1132FD0F8942091290C22FF03C0D89A2B7F02C0B9
S1132FE0D89824602093290C99278FBF8FB7F89421
S1132FF0992723E02093C9068FBF8FB7F8949927A8
S11330002091530A8FBF222309F057C18091CA0629
S1133010882309F452C18FB7F89499272FE020939D
S1133020530A8FBF2FB7F8943327809112029091DF
S1133030130290932B0C80932A0C2FBF8FB7F89414
S113304099278FBF80E098E0A0E0B0E08093310C36
S11330509093320CA093330CB093340C8093690A90
S113306090936A0AA0936B0AB0936C0A81E08093F0
S1133070680A6FB7F89482B7282F33274427552757
S11330802050384F4F4F5F4F20936D0A30936E0A94
S113309040936F0A5093700A8091120D9091130D12
S11330A0A091140DB091150D84608093120D90932E
S11330B0130DA093140DB093150D8091240C992732
S11330C0AA27BB27281739074A075B0748F5209327
S11330D0240C21BF1092450B809125028823D1F442
S11330E08FB7F894482F55272091420BE22FFF27E2
S11330F0EE0FFF1FED50F64F80819181892B41F433
S11331002F5F2F712093420B8CE990E09183808391
S11331104FBF06C085B7837E85BF85B7806285BFF4
S1133120862F99278FBF8FB7F894C82E00912A0C49
S113313010912B0CF80101900020E9F73197DE2E55
S1133140D01A43E0E42EF12CEC0EFD1EB801C701A9
S11331500E942E2669E171E0C7010E945426892B42
S113316049F1AE014F5F5F4F60E271E0C7010E9419
S11331706E260E94FA25809328028823D9F08FB7FF
S1133180F894482F55272091420BE22FFF27EE0F8A
S1133190FF1FED50F64F80819181892B41F42F5F01
S11331A02F712093420B8CED90E0918380834FBF6D
S11331B0CFBE30C082E0809388068091EF09909161
S11331C0F009892B11F581E090E09093F009809348
S11331D0EF098D2D992790931F0D80931E0D109349
S11331E0270C0093260CF801608190918D0681E0F4
S11331F080938D06992329F46CB95E9A81E090E05E
S113320006C01092F0091092EF0980E090E0CFBE62
S1133210882389F48FB7F89499271092530A8FBFA3
S11332202FB7F894332789EE93E09093440B80935F
S1133230430B2FBF04C0882311F00C94E9256FB70A
S1133240F8948091120D9091130DA091140DB091EA
S1133250150D82FF14C02FB7F89433278B7F80930A
S1133260120D9093130DA093140DB093150D2FBF51
S11332700097A105B10519F481E08093450B89EE0F
S113328093E09093440B8093430B8FB7F894482FAB
S113329055272091420BE22FFF27EE0FFF1FED5021
S11332A0F64F80819181892B09F0A6C22F5F2F717F
S11332B02093420B81E396E19DC28FB7F89499273E
S11332C08FBF8091CA06882331F42FB7F89433272F
S11332D08BEE93E009C0222311F40C947F252FB7C1
S11332E0F89433278CEE93E09093440B8093430B34
S11332F02FBF0C947F258FB7F8942091290C22FFBF
S113330003C0D89A2B7F02C0D89824602093290C3C
S113331099278FBF8FB7F894992724E02093C90683
S11333208FBF8FB7F89499272091530A8FBF222318
S113333009F05CC08091CA06882309F457C08FB78E
S1133340F89499272EE02093530A8FBF2FB7F8944F
S11333503327809108029091090290932B0C80935B
S11333602A0C2FBF0E944010882311F00C94E925E9
S11333706FB7F8948091120D9091130DA091140DD4
S1133380B091150D82FF14C02FB7F89433278B7FAB
S11333908093120D9093130DA093140DB093150DFB
S11333A02FBF0097A105B10519F481E08093450B67
S11333B089EE93E09093440B8093430B8FB7F8947A
S11333C0482F55272091420BE22FFF27EE0FFF1FB6
S11333D0ED50F64F80819181892B09F00DC22F5F4A
S11333E02F712093420B83E897E004C28FB7F894BF
S11333F099278FBF8091CA06882331F42FB7F89498
S113340033278BEE93E009C0222311F40C94672533
S11334102FB7F89433278CEE93E09093440B80936A
S1133420430B2FBF0C9467258FB7F8942091290C78
S113343022FF03C0D89A2B7F02C0D898246020931F
S1133440290C99278FBF8FB7F894992725E02093EB
S1133450C9068FBF8FB7F89499272091530A8FBF5D
S1133460222309F087C08091CA06882309F482C008
S1133470E0E1FCE011928CE0E432F807D9F76EE663
S113348071E0CF0144970E942E26EAE9FAE01192F6
S11334908BE0EF33F807D9F76BE771E08AE99AE03C
S11334A00E942E260AE71AE060911E0270911F0204
S11334B0C8010E942E2660E17CE0C8010E94182603
S11334C06091230270912402C8010E9418268FB7CC
S11334D0F894992720E12093530A8FBF8FB7F8946B
S11334E0992710932B0C00932A0C8FBF0E94401035
S11334F0882311F00C94E9256FB7F8948091120D8C
S11335009091130DA091140DB091150D82FF14C06C
S11335102FB7F89433278B7F8093120D9093130D5C
S1133520A093140DB093150D2FBF0097A105B105FD
S113353019F481E08093450B89EE93E09093440B5A
S11335408093430B8FB7F894482F55272091420B53
S1133550E22FFF27EE0FFF1FED50F64F8081918180
S1133560892B09F049C12F5F2F712093420B88E307
S113357095E140C18FB7F89499278FBF8091CA060F
S1133580882331F42FB7F89433278BEE93E009C0E6
S1133590222311F40C9497252FB7F89433278CEE3B
S11335A093E09093440B8093430B2FBF0C94972587
S11335B08FB7F8942091290C22FF03C0D89A2B7F4F
S11335C002C0D89824602093290C99278FBF8FB705
S11335D0F89499271092C9068FBF2FB7F894332710
S11335E08FEF9FEF9093440B8093430B2FBF8FB7C4
S11335F0F894482F55272091420BE22FFF27EE0F16
S1133600FF1FED50F64F80819181892B41F42F5F8C
S11336102F712093420B80EF92E1918380834FBFFF
S11336208FB7F89499271092290CD99AD89ADA9AD4
S11336308FBF0C94E9258FB7F89499278FBF809199
S1133640530A863009F4A1C38730A0F4833009F407
S11336506EC0843038F4813031F1823011F00C9432
S1133660E92543C0843009F4D2C0853011F00C94AC
S1133670E925B7C1893009F444C68A3040F487305B
S113368009F46CC4883011F00C94E92550C58B30D2
S113369009F420C78B3008F48FC28C3011F00C94DD
S11336A0E9250C9482238FB7F894992722E020937C
S11336B0530A8FBFA89A82E390E0A0E0B0E0809321
S11336C0600A9093610AA093620AB093630A6093BC
S11336D05F0A6FB7F89482B7282F332744275527FA
S11336E02E5C3F4F4F4F5F4F43C08FB7F8949927DD
S11336F023E02093530A8FBFA99A80ED97E0A0E0BE
S1133700B0E08093600A9093610AA093620AB09338
S1133710630A60935F0A6FB7F89482B7282F332740
S1133720442755272053384F4F4F5F4F21C08FB741
S1133730F894992724E02093530A8FBFA99888E826
S113374093E1A0E0B0E08093600A9093610AA093B3
S1133750620AB093630A60935F0A6FB7F89482B702
S1133760282F33274427552728573C4E4F4F5F4F68
S11337702093640A3093650A4093660A5093670A5B
S11337808091120D9091130DA091140DB091150D0F
S113379082608093120D9093130DA093140DB09337
S11337A0150D8091240C9927AA27BB2728173907C0
S11337B04A075B0748F52093240C21BF1092450B60
S11337C0809125028823D1F48FB7F894482F552788
S11337D02091420BE22FFF27EE0FFF1FED50F64F13
S11337E080819181892B41F42F5F2F712093420BAB
S11337F08CE990E0918380834FBF06C085B7837EB8
S113380085BF85B7806285BF862F992711CF8FB773
S1133810F894992725E02093530A8FBF2FB7F89483
S113382033278091A2019091A30190932B0C809354
S11338302A0C2FBF8FB7F89499278FBF80E098E0A8
S1133840A0E0B0E08093310C9093320CA093330C41
S1133850B093340C8093690A90936A0AA0936B0A1C
S1133860B0936C0A6093680A6FB7F89482B7282FF4
S11338703327442755272050384F4F4F5F4F20930D
S11338806D0A30936E0A40936F0A5093700A8091C8
S1133890120D9091130DA091140DB091150D84602B
S11338A08093120D9093130DA093140DB093150DE6
S11338B08091240C9927AA27BB27281739074A0780
S11338C05B0748F52093240C21BF1092450B80918F
S11338D025028823D1F48FB7F894482F55272091D7
S11338E0420BE22FFF27EE0FFF1FED50F64F8081B2
S11338F09181892B41F42F5F2F712093420B8CE926
S113390090E0918380834FBF06C085B7837E85BFD7
S113391085B7806285BF862F99278FBF8FB7F894AC
S1133920C82E00912A0C10912B0CF8010190002054
S1133930E9F73197DE2ED01AE3E0EE2EF12CEC0EEF
S1133940FD1EB801C7010E942E2669E171E0C7017E
S11339500E945426892B79F0AE014F5F5F4F60E2DD
S113396071E0C7010E946E260E94FA258093280206
S1133970882309F062C682E0809388068091EF096B
S11339809091F009892B11F581E090E09093F00972
S11339908093EF098D2D992790931F0D80931E0D11
S11339A01093270C0093260CF801608190918D06EA
S11339B081E080938D06992329F46CB95E9A81E0A5
S11339C090E006C01092F0091092EF0980E090E0B8
S11339D0CFBE882309F47CC6882311F00C94E92512
S11339E08BC68FB7F89499272AE02093530A8FBF88
S11339F02FB7F89433278091E4019091E5019093D7
S1133A002B0C80932A0C2FBF8FB7F89499278FBF64
S1133A1080E098E0A0E0B0E08093310C9093320C09
S1133A20A093330CB093340C8093690A90936A0A80
S1133A30A0936B0AB0936C0A81E08093680A6FB715
S1133A40F89482B7282F3327442755272050384F1E
S1133A504F4F5F4F20936D0A30936E0A40936F0A65
S1133A605093700A8091120D9091130DA091140D32
S1133A70B091150D84608093120D9093130DA09353
S1133A80140DB093150D8091240C9927AA27BB27F8
S1133A90281739074A075B0748F52093240C21BFF0
S1133AA01092450B809125028823D1F48FB7F894A6
S1133AB0482F55272091420BE22FFF27EE0FFF1FBF
S1133AC0ED50F64F80819181892B41F42F5F2F7146
S1133AD02093420B8CE990E0918380834FBF06C012
S1133AE085B7837E85BF85B7806285BF862F99277A
S1133AF08FBF8FB7F894C82E00912A0C10912B0C0D
S1133B00F80101900020E9F73197DE2ED01A63E026
S1133B10E62EF12CEC0EFD1EB801C7010E942E26E4
S1133B2069E171E0C7010E945426892B79F0AE0146
S1133B304F5F5F4F60E271E0C7010E946E260E94F2
S1133B40FA2580932802882309F077C582E08093C0
S1133B5088068091EF099091F009892B11F581E095
S1133B6090E09093F0098093EF098D2D992790931D
S1133B701F0D80931E0D1093270C0093260CF80143
S1133B80608190918D0681E080938D06992329F4BC
S1133B906CB95E9A81E090E006C01092F009109230
S1133BA0EF0980E090E0CFBE882309F491C5882313
S1133BB011F00C94E925A0C58FB7F894992726E055
S1133BC02093530A8FBF2FB7F89433278091AF0106
S1133BD09091B00190932B0C80932A0C2FBF8FB738
S1133BE0F89499278FBF80E098E0A0E0B0E080933C
S1133BF0310C9093320CA093330CB093340C80931B
S1133C00690A90936A0AA0936B0AB0936C0A609352
S1133C10680A6FB7F89482B7282F332744275527AB
S1133C202050384F4F4F5F4F20936D0A30936E0AE8
S1133C3040936F0A5093700A8091120D9091130D66
S1133C40A091140DB091150D84608093120D909382
S1133C50130DA093140DB093150D8091240C992786
S1133C60AA27BB27281739074A075B0748F520937B
S1133C70240C21BF1092450B809125028823D1F496
S1133C808FB7F894482F55272091420BE22FFF2736
S1133C90EE0FFF1FED50F64F80819181892B41F487
S1133CA02F5F2F712093420B8CE990E091838083E6
S1133CB04FBF06C085B7837E85BF85B7806285BF49
S1133CC0862F99278FBF8FB7F894C82E00912A0C9E
S1133CD010912B0CF80101900020E9F73197DE2EAA
S1133CE0D01A43E0E42EF12CEC0EFD1EB801C701FE
S1133CF00E942E2669E171E0C7010E945426892B97
S1133D0079F0AE014F5F5F4F60E271E0C7010E943E
S1133D106E260E94FA2580932802882309F08DC418
S1133D2082E0809388068091EF099091F009892BB5
S1133D3011F581E090E09093F0098093EF098D2DC7
S1133D40992790931F0D80931E0D1093270C0093B9
S1133D50260CF801608190918D0681E080938D0698
S1133D60992329F46CB95E9A81E090E006C0109220
S1133D70F0091092EF0980E090E0CFBE882309F4A7
S1133D80A7C4882309F025C7B7C48FB7F894992727
S1133D9027E02093530A8FBF2FB7F89433278091DD
S1133DA0BC019091BD0190932B0C80932A0C2FBFE2
S1133DB08FB7F89499278FBF80E098E0A0E0B0E037
S1133DC08093310C9093320CA093330CB093340C49
S1133DD08093690A90936A0AA0936B0AB0936C0A61
S1133DE06093680A6FB7F89482B7282F3327442763
S1133DF055272050384F4F4F5F4F20936D0A309313
S1133E006E0A40936F0A5093700A8091120D90913C
S1133E10130DA091140DB091150D84608093120DB3
S1133E209093130DA093140DB093150D8091240C51
S1133E309927AA27BB27281739074A075B0748F59C
S1133E402093240C21BF1092450B809125028823D6
S1133E50D1F48FB7F894482F55272091420BE22FC5
S1133E60FF27EE0FFF1FED50F64F80819181892BC4
S1133E7041F42F5F2F712093420B8CE990E09183E2
S1133E8080834FBF06C085B7837E85BF85B78062B8
S1133E9085BF862F99278FBF8FB7F894C82E0091BE
S1133EA02A0C10912B0CF80101900020E9F73197AE
S1133EB0DE2ED01A23E0E22EF12CEC0EFD1EB8010A
S1133EC0C7010E942E2669E171E0C7010E945426B1
S1133ED0892B79F0AE014F5F5F4F60E271E0C7015B
S1133EE00E946E260E94FA2580932802882309F0F6
S1133EF0A4C382E0809388068091EF099091F00931
S1133F00892B11F581E090E09093F0098093EF09FB
S1133F108D2D992790931F0D80931E0D1093270CC0
S1133F200093260CF801608190918D0681E08093C6
S1133F308D06992329F46CB95E9A81E090E006C05D
S1133F401092F0091092EF0980E090E0CFBE882330
S1133F5009F4BEC3882309F03CC6CEC38FB7F894D6
S1133F60992728E02093530A8FBF2FB7F89433275B
S1133F708091C8019091C90190932B0C80932A0CD5
S1133F802FBF8FB7F89499278FBF80E098E0A0E007
S1133F90B0E08093310C9093320CA093330CB09327
S1133FA0340C8093690A90936A0AA0936B0AB093C5
S1133FB06C0A6093680A6FB7F89482B7282F332786
S1133FC0442755272050384F4F4F5F4F20936D0A99
S1133FD030936E0A40936F0A5093700A8091120DC9
S1133FE09091130DA091140DB091150D84608093E0
S1133FF0120D9093130DA093140DB093150D809191
S1134000240C9927AA27BB27281739074A075B07D7
S113401048F52093240C21BF1092450B8091250272
S11340208823D1F48FB7F894482F55272091420B59
S1134030E22FFF27EE0FFF1FED50F64F8081918195
S1134040892B41F42F5F2F712093420B8CE990E070
S1134050918380834FBF06C085B7837E85BF85B7B4
S1134060806285BF862F99278FBF8FB7F894C82E9B
S113407000912A0C10912B0CF80101900020E9F713
S11340803197DE2ED01A83E0E82EF12CEC0EFD1EC3
S1134090B801C7010E942E2669E171E0C7010E94A0
S11340A05426892B79F0AE014F5F5F4F60E271E0D7
S11340B0C7010E946E260E94FA2580932802882355
S11340C009F0BBC282E0809388068091EF09909149
S11340D0F009892B11F581E090E09093F009809329
S11340E0EF098D2D992790931F0D80931E0D10932A
S11340F0270C0093260CF801608190918D0681E0D5
S113410080938D06992329F46CB95E9A81E090E03E
S113411006C01092F0091092EF0980E090E0CFBE43
S1134120882309F4D5C2882309F053C5E5C28FB7A3
S1134130F894992729E02093530A8FBF2FB7F89456
S113414033278091D5019091D60190932B0C8093C5
S11341502A0C2FBF8FB7F89499278FBF80E098E07F
S1134160A0E0B0E08093310C9093320CA093330C18
S1134170B093340C8093690A90936A0AA0936B0AF3
S1134180B0936C0A81E08093680A6FB7F89482B7A1
S1134190282F3327442755272050384F4F4F5F4F40
S11341A020936D0A30936E0A40936F0A5093700AFD
S11341B08091120D9091130DA091140DB091150DD5
S11341C084608093120D9093130DA093140DB093FB
S11341D0150D8091240C9927AA27BB272817390786
S11341E04A075B0748F52093240C21BF1092450B26
S11341F0809125028823D1F48FB7F894482F55274E
S11342002091420BE22FFF27EE0FFF1FED50F64FD8
S113421080819181892B41F42F5F2F712093420B70
S11342208CE990E0918380834FBF06C085B7837E7D
S113423085BF85B7806285BF862F99278FBF8FB7CB
S1134240F894C82E00912A0C10912B0CF8010190BF
S11342500020E9F73197DE2ED01AB3E0EB2EF12CD3
S1134260EC0EFD1EB801C7010E942E2669E171E023
S1134270C7010E945426892B79F0AE014F5F5F4F2E
S113428060E271E0C7010E946E260E94FA258093C5
S11342902802882309F0D1C182E0809388068091A6
S11342A0EF099091F009892B11F581E090E090934A
S11342B0F0098093EF098D2D992790931F0D80931A
S11342C01E0D1093270C0093260CF8016081909129
S11342D08D0681E080938D06992329F46CB95E9A4A
S11342E081E090E006C01092F0091092EF0980E09E
S11342F090E0CFBE882309F4EBC1882309F069C498
S1134300FBC18FB7F89499272BE02093530A8FBFF2
S11343102FB7F89433278091F1019091F201909393
S11343202B0C80932A0C2FBF8FB7F89499278FBF3B
S113433080E098E0A0E0B0E08093310C9093320CE0
S1134340A093330CB093340C8093690A90936A0A57
S1134350A0936B0AB0936C0A6093680A6FB7F894E1
S113436082B7282F3327442755272050384F4F4FE3
S11343705F4F20936D0A30936E0A40936F0A5093F7
S1134380700A8091120D9091130DA091140DB091AB
S1134390150D84608093120D9093130DA093140D4A
S11343A0B093150D8091240C9927AA27BB272817B1
S11343B039074A075B0748F52093240C21BF109264
S11343C0450B809125028823D1F48FB7F894482FA8
S11343D055272091420BE22FFF27EE0FFF1FED50D0
S11343E0F64F80819181892B41F42F5F2F712093A7
S11343F0420B8CE990E0918380834FBF06C085B760
S1134400837E85BF85B7806285BF862F99278FBF3E
S11344108FB7F894C82E00912A0C10912B0CF80138
S113442001900020E9F73197DE2ED01AE3E0EE2E5A
S1134430F12CEC0EFD1EB801C7010E942E2669E185
S113444071E0C7010E945426892B79F0AE014F5FB9
S11344505F4F60E271E0C7010E946E260E94FA2558
S113446080932802882309F0E8C082E080938806BC
S11344708091EF099091F009892B11F581E090E08A
S11344809093F0098093EF098D2D992790931F0D38
S113449080931E0D1093270C0093260CF801608165
S11344A090918D0681E080938D06992329F46CB94F
S11344B05E9A81E090E006C01092F0091092EF0934
S11344C080E090E0CFBE882309F402C1882309F07C
S11344D080C312C18FB7F89499272CE02093530A14
S11344E08FBF2FB7F89433278091FD019091FE017F
S11344F090932B0C80932A0C2FBF8FB7F894992795
S11345008FBF80E098E0A0E0B0E08093310C9093FE
S1134510320CA093330CB093340C8093690A9093BB
S11345206A0AA0936B0AB0936C0A6093680A6FB727
S1134530F89482B7282F3327442755272050384F23
S11345404F4F5F4F20936D0A30936E0A40936F0A6A
S11345505093700A8091120D9091130DA091140D37
S1134560B091150D84608093120D9093130DA09358
S1134570140DB093150D8091240C9927AA27BB27FD
S1134580281739074A075B0748F52093240C21BFF5
S11345901092450B809125028823D1F48FB7F894AB
S11345A0482F55272091420BE22FFF27EE0FFF1FC4
S11345B0ED50F64F80819181892B41F42F5F2F714B
S11345C02093420B8CE990E0918380834FBF06C017
S11345D085B7837E85BF85B7806285BF862F99277F
S11345E08FBF8FB7F894C82E00912A0C10912B0C12
S11345F0F80101900020E9F73197DE2ED01A63E02C
S1134600E62EF12CEC0EFD1EB801C7010E942E26E9
S113461069E171E0C7010E945426892B49F1AE017A
S11346204F5F5F4F60E271E0C7010E946E260E94F7
S1134630FA25809328028823D9F08FB7F894482F5D
S113464055272091420BE22FFF27EE0FFF1FED505D
S1134650F64F80819181892B41F42F5F2F71209334
S1134660420B8CED90E0918380834FBFCFBE30C06E
S113467082E0809388068091EF099091F009892B5C
S113468011F581E090E09093F0098093EF098D2D6E
S1134690992790931F0D80931E0D1093270C009360
S11346A0260CF801608190918D0681E080938D063F
S11346B0992329F46CB95E9A81E090E006C01092C7
S11346C0F0091092EF0980E090E0CFBE882389F4CE
S11346D08FB7F89499271092530A8FBF2FB7F89485
S11346E0332789EE93E09093440B8093430B2FBFC1
S11346F003C0882309F06DC22FB7F894332789EEDD
S113470093E066C08FB7F894482F55272091420B49
S1134710E22FFF27EE0FFF1FED50F64F80819181AE
S1134720892B09F055C22F5F2F712093420B8FE420
S113473096E04CC28FB7F8949927D090530A8FBF54
S11347408FB7F89499272091370C8FBF233008F442
S113475045C0FFE0DF1611F1FD1538F08DE0D816E5
S113476059F0EEE0DE1679F512C0F0E1DF16E9F05B
S113477081E1D81641F520C02FB7F894332788EE8D
S113478093E09093440B8093430B2FBF88C12FB7C2
S1134790F894332788EE93E00C940D1A2FB7F8940D
S11347A0332788EE93E00C9474192FB7F8943327C9
S11347B08AEE93E00C94D11A2FB7F894332788EE3D
S11347C093E00C94D11A2FB7F894332788EE93E032
S11347D09093440B8093430B2FBFC1C18FB7F894C0
S11347E099272F5F2093370C8FBF8FB7F8949927A1
S11347F08FBFE0E1DE1621F0F1E1DF1659F405C0C8
S113480088EE93E0A0E0B0E009C080E69AEEA0E074
S1134810B0E004C080E098E0A0E0B0E08093310C08
S11348209093320CA093330CB093340C2091310C40
S11348303091320C4091330C5091340C2093690A1E
S113484030936A0A40936B0A50936C0A81E0809318
S1134850680A6FB7F89482B7280F311D411D511DA6
S113486020936D0A30936E0A40936F0A5093700A36
S11348708091120D9091130DA091140DB091150D0E
S113488084608093120D9093130DA093140DB09334
S1134890150D8091240C9927AA27BB2728173907BF
S11348A04A075B0748F52093240C21BF1092450B5F
S11348B0809125028823D1F48FB7F894482F552787
S11348C02091420BE22FFF27EE0FFF1FED50F64F12
S11348D080819181892B41F42F5F2F712093420BAA
S11348E08CE990E0918380834FBF06C085B7837EB7
S11348F085BF85B7806285BF862F99278FBF8FB705
S1134900F894B82E00912A0C10912B0CF801019008
S11349100020E9F73197CE2EC01A83E0E82EF12C5F
S1134920EC0EFD1EB801C7010E942E2669E171E05C
S1134930C7010E945426892B49F1AE014F5F5F4F96
S113494060E271E0C7010E946E260E94FA258093FE
S113495028028823D9F08FB7F894482F552720913F
S1134960420BE22FFF27EE0FFF1FED50F64F808121
S11349709181892B41F42F5F2F712093420B8CED91
S113498090E0918380834FBFBFBE30C082E08093AC
S113499088068091EF099091F009892B11F581E047
S11349A090E09093F0098093EF098C2D99279093D0
S11349B01F0D80931E0D1093270C0093260CF801F5
S11349C0608190918D0681E080938D06992329F46E
S11349D06CB95E9A81E090E006C01092F0091092E2
S11349E0EF0980E090E0BFBE882389F48FB7F89484
S11349F099271092530A8FBF2FB7F894332789EE63
S1134A0093E09093440B8093430B2FBF03C0882300
S1134A1009F0DFC08091120D9091130DA091140D37
S1134A20B091150D82FF14C02FB7F89433278B7FF4
S1134A308093120D9093130DA093140DB093150D44
S1134A402FBF0097A105B10519F481E08093450BB0
S1134A508FB7F894992729EE33E03093440B2093D1
S1134A60430B8FBF8FB7F89499271092530A8FBFC7
S1134A70FFE0DF1609F443C0FD1540F08DE0D816C1
S1134A8071F0EEE0DE1609F06AC021C0F0E1DF1635
S1134A9009F44DC081E1D81609F061C048C08FB750
S1134AA0F894482F55272091420BE22FFF27EE0F51
S1134AB0FF1FED50F64F80819181892B09F088C04A
S1134AC02F5F2F712093420B85E896E07FC08FB74C
S1134AD0F894482F55272091420BE22FFF27EE0F21
S1134AE0FF1FED50F64F80819181892B09F070C032
S1134AF02F5F2F712093420B83E897E067C08FB735
S1134B00F894482F55272091420BE22FFF27EE0FF0
S1134B10FF1FED50F64F80819181892B09F058C019
S1134B202F5F2F712093420B81E396E14FC08FB723
S1134B30F894482F55272091420BE22FFF27EE0FC0
S1134B40FF1FED50F64F80819181892B09F040C001
S1134B502F5F2F712093420B88E395E137C08FB705
S1134B60F894482F55272091420BE22FFF27EE0F90
S1134B70FF1FED50F64F80819181892B49F52F5FFE
S1134B802F712093420B8CE392E120C02FB7F8944D
S1134B9033278EEE93E09093440B8093430B2FBF07
S1134BA08FB7F894482F55272091420BE22FFF2707
S1134BB0EE0FFF1FED50F64F80819181892B41F458
S1134BC02F5F2F712093420B80EF92E191838083BA
S1134BD04FBFCE5FDE4F0FB6F894DEBF0FBECDBF22
S1134BE0DF91CF911F910F91FF90EF90DF90CF90C5
S1134BF0BF900895FC0188279927E89421912032D9
S1134C00E9F3293010F02E30C8F32B3241F02D3265
S1134C1039F4689404C00E94A026820F911D21914A
S1134C2020532A30C0F31EF4909581959F4F089528
S1134C30FB01DC010D900020E9F7119701900D9222
S1134C400020E1F70895FC018191861721F0882363
S1134C50D9F7992708953197CF010895FB01DC0115
S1134C6001900D920020E1F70895FB01DC010D9005
S1134C700020E9F711974150504028F0019000209E
S1134C800D92C9F708951C920895FB01DC0141506F
S1134C90504048F001900D920020C9F701C01D92C8
S1134CA041505040E0F70895FB0151915523A9F07C
S1134CB0BF01DC014D9145174111E1F759F4CD01D4
S1134CC00190002049F04D9140154111C9F3FB01B9
S1134CD04111EFCF81E090E001970895009731F4FE
S1134CE0DA018D919C91009709F40EC0DC01FB015F
S1134CF03D912191222319F03217C9F3FACF3323BE
S1134D0031F4DA011D921C9288279927089511978E
S1134D10AF93BF93FB013D912191321771F433237B
S1134D2021F488279927119702C01E921196FA013F
S1134D30A193B0839F918F910895222369F7EACFBD
S1134D407AE0979F902D879F802D910D11240895CF
S1134D50A0E1B0E0EEEAF6E20C94182A85E08E8336
S1134D608D899E899C838B83AE01475E5F4F5A83F6
S1134D7049836F89788DCE0103960E94C326E2E0B1
S1134D8060960C94342AAAE0B0E0E9ECF6E20C94C4
S1134D90082AAA24BB2465013C017A8769872A0171
S1134DA0FC0117821682838180FD05C02FEF3FEF3F
S1134DB03D832C8360C21F821E824FEF5FEF5D83B1
S1134DC04C83882499241B821A8219821DC259811A
S1134DD0E52EFF24E0FEDBC1153219F45E7F598312
S1134DE000C2912F90539A3060F48FE7281611F483
S1134DF080E004C08AE0289E802D1124282E290EEC
S1134E00FEC1812F992787FD90950E94D629382EBF
S1134E109EE6391609F48CC19315DCF0A8E63A161F
S1134E2009F4EDC1A31564F0B3E63B1691F1E4E691
S1134E303E1609F4A2C0FAE23F1609F088C121C067
S1134E4029E6321609F499C03CE6331609F07FC10D
S1134E501CC043E7341609F44BC043154CF05FE61D
S1134E60351609F47FC080E7381609F070C180C098
S1134E7095E7391609F47EC0A8E73A1609F067C128
S1134E8077C0B981B061B983BAC1E981E460E983CB
S1134E90B6C1870100711070E4FC07C0D201AD9067
S1134EA0BC90E2E0F0E04E0E5F1EFFE72F1611F417
S1134EB031E0232E75010FC0C3010E9441294C012A
S1134EC02FEF8F3F920709F4D2C10115110519F490
S1134ED0D7018D937D012A94822D8F5F181664F378
S1134EE0570135C15701B301C4010E94842934C05C
S1134EF0870100711070E4FC07C0F201A080B1804A
S1134F0022E030E0420E531EC3010E9441294C01AD
S1134F100E94C729892BC1F73FEF83163FEF930601
S1134F2009F4A5C1750112C0C4010E94C729892BC7
S1134F30C9F60115110519F4D7018D927D01C3013C
S1134F400E9441294C018F5F9F4F29F02A94822DA2
S1134F508F5F18164CF35701012B09F0F8C0F501C7
S1134F601082F5C0E981E260E983F8E0F88705C0C2
S1134F7020E12887398132603983C3010E944129A5
S1134F804C010E94C729892BC1F74FEF84164FEFBC
S1134F90940609F448C1882D8D3211F08B3299F4AE
S1134FA02A9412140CF03FC18D3219F459815860BF
S1134FB05983C3010E9441294C018FEF88168FEF5A
S1134FC0980609F430C190E38916A1F5AA24BB24FC
S1134FD065012A9412140CF07EC0C3010E94412979
S1134FE04C01AFEF8F3F9A0709F475C00E94D62990
S1134FF08837D9F4BFE63B1631F0E4E63E1619F0E3
S1135000F5E73F1629F4B301C4010E94842963C063
S1135010C3010E9441294C018F5F9F4F19F430E175
S1135020388759C040E1488705C059E6351611F460
S113503088E08887EE24FF248701C4010E94D629D2
S113504020EDC22E2FEFD22EC80ED91E9AE0C9161B
S1135050D1043CF0C601C19762F0A9EDBFEFCA0EBE
S1135060DB1ED7FC06C0B8858B2F9927C816D90636
S11350703CF057016801B301C4010E94842921C096
S1135080E8852E2F332744275527C801B7010E94EE
S1135090E9297B018C01C601AA2797FDA095BA2FA7
S11350A0E80EF91E0A1F1B1F2A94121444F4C301AC
S11350B00E9441294C018F5F9F4F09F0BECF5701D9
S11350C06801298123FF07C0AA24BB246501AE1807
S11350D0BF08C00AD10A4981242F332724FD37C0D1
S11350E0C90186709070069741F4D201ED91FC914C
S11350F0A082B182C282D38226C021FF06C0D2011F
S1135100ED91FC91B182A0821EC0C201029622FFE1
S113511008C0D201ED91FC91A082B182C282D382F7
S113512005C0D201ED91FC91B182A0822C010FC087
S1135130E4FC0DC0F20120813181F3018681978165
S1135140D9018D939C93E2E0F0E04E0E5F1EF301D3
S1135150868197812A813B81281739076CF439812C
S113516034FD06C04E815F814F5F5F4F5F834E8386
S11351701D821C82198243C05EE6351609F053C0B5
S11351808FEF88168FEF980609F44DC0F3CF1532D0
S113519069F4F3010680F781E02DFB83EA83FAE0EA
S11351A0F8878FE7282E21E0298329C0812F9927AA
S11351B087FD90950E94C729892B99F0C3010E940D
S11351C041294C010E94C729892BC1F73FEF83165F
S11351D03FEF930609F442C0B301C4010E9484293D
S11351E00EC0C3010E9441294C018F5F9F4FD9F02B
S11351F0812F992787FD909588169906A1F48985B2
S11352009A8501969A878987F301838183FF05C074
S1135210E985FA85C895102D03C0A985BA851C9126
S1135220112309F0D4CDB9812B2F332720FF11C0CE
S1135230F301868197814A815B81481759074CF4B1
S113524024FD05C08E819F8101969F838E831D82DC
S11352501C829FEF89169FEF990621F4AE81BF81CE
S1135260AB2B49F0EE81FF81FD83EC8304C0F9810F
S11352702F2F3327DDCF8C819D81E2E12A960C9478
S1135280242ACF93DF93EC012B81822F992780FF6F
S113529015C086FF0AC02F7B2B838E819F810196C8
S11352A09F838E838A8199272CC082FF12C0E88154
S11352B0F9818081882329F420622B838FEF9FEF6B
S11352C020C0282F332727FD30953196F983E883B2
S11352D011C0EA85FB85CE0109959C0197FF0AC0A0
S11352E08B812F5F3F4F11F490E101C090E2892B35
S11352F08B83E4CF8E819F8101969F838E83822F3F
S11353009927DF91CF910895AC01FB012381822F6E
S1135310992780FF12C086FD10C08FEF4F3F5807BA
S113532061F0428320642F7D2383868197810197D6
S113533097838683842F992708958FEF9FEF08958D
S113534097FB092E07260AD077FD04D00CD006D08F
S113535000201AF4709561957F4F0895F6F79095A3
S113536081959F4F0895AA1BBB1B51E107C0AA1F3B
S1135370BB1FA617B70710F0A61BB70B881F991FF2
S11353805A95A9F780959095BC01CD010895911186
S113539013C0803251F08A3041F08C3031F08D30BE
S11353A021F0893011F08B3099F708958F9309D04B
S11353B08F9109F08062089599278827089585FDC3
S11353C0FBCF80629111F8CF8136ECF38B37DCF799
S11353D00895629FD001739FF001829FE00DF11D3B
S11353E0649FE00DF11D929FF00D839FF00D749F5B
S11353F0F00D659FF00D9927729FB00DE11DF91F07
S1135400639FB00DE11DF91FBD01CF011124089563
S11354102F923F924F925F926F927F928F929F92C0
S1135420AF92BF92CF92DF92EF92FF920F931F93AE
S1135430CF93DF93CDB7DEB7CA1BDB0B0FB6F8945F
S1135440DEBF0FBECDBF09942A88398848885F849F
S11354506E847D848C849B84AA84B984C884DF8010
S1135460EE80FD800C811B81AA81B981CE0FD11DF4
S11354700FB6F894DEBF0FBECDBFED010895FFCF88
S11354804552524F523A002564004F4B003E2000D3
S11354902B435245473A001A00234D4F4E493D00D5
S11354A03D002C002578002B4353513A003A000D5F
S11354B000234D4F4E493A00425349433A000043BA
S11354C0633A004E633A004E0052785175616C3A6B
S11354D0004C41433A0049643A00415246434E3A33
S11354E0005057523A0064626D0054413A002B3127
S11354F03430323930393532343300546573746999
S11355006E672047534D4472697665720090240398
S113551000E1000041542B4950523D3537363030BC
S11355200D00940141542B435245473D320D00A4D4
S11355300141542B434D45453D320D00B1014154C9
S113554023424E443D330D00BE0141542B43465586
S11355504E3D310D00CA0141542353494D44455435
S11355603D310D00D70141542B434D47463D310D8C
S113557000E60141542B435245473F0D00F30141DE
S113558054234D4F4E490D00FF0141542B435351B9
S11355900D000A0241542B434D47533D220014028F
S10955A0220D00200201AF
S9030000FC
