:100000000C9466010C9485010C9485010C94850177
:100010000C9485010C9485010C9485010C94850148
:100020000C9485010C9485010C9485010C94850138
:100030000C9485010C94320F0C9485010C9485016D
:100040000C945F060C9433100C9485010C9485017C
:100050000C9485010C943D120C9485010C9485013F
:100060000C9485010C94BD090C9485010C94550CDD
:100070000C9485010C9485010C9485010C948501E8
:100080000C9485010C9485010C9485010C948501D8
:100090000C9485010C9485010C9485010C948501C8
:1000A0000C9485010C9485010C9485010C948501B8
:1000B0000C9485010C9485010C9485010C948501A8
:1000C0000C9485010C9485010C948501000021108D
:1000D000422063308440A550C660E77008812991B2
:1000E0004AA16BB18CC1ADD1CEE1EFF1311210025A
:1000F00073325222B5529442F772D6623993188302
:100100007BB35AA3BDD39CC3FFF3DEE36224433425
:1001100020040114E664C774A44485546AA54BB551
:1001200028850995EEE5CFF5ACC58DD553367226F9
:1001300011163006D776F6669556B4465BB77AA7A1
:1001400019973887DFF7FEE79DD7BCC7C448E55845
:100150008668A7784008611802282338CCC9EDD9F1
:100160008EE9AFF9488969990AA92BB9F55AD44A99
:10017000B77A966A711A500A333A122AFDDBDCCB41
:10018000BFFB9EEB799B588B3BBB1AABA66C877C65
:10019000E44CC55C222C033C600C411CAEED8FFD91
:1001A000ECCDCDDD2AAD0BBD688D499D977EB66E39
:1001B000D55EF44E133E322E511E700E9FFFBEEFE1
:1001C000DDDFFCCF1BBF3AAF599F788F8891A981A3
:1001D000CAB1EBA10CD12DC14EF16FE18010A1008D
:1001E000C230E3200450254046706760B98398937D
:1001F000FBA3DAB33DC31CD37FE35EF3B1029012DD
:10020000F322D2323542145277625672EAB5CBA548
:10021000A89589856EF54FE52CD50DC5E234C3242C
:10022000A01481046674476424540544DBA7FAB71C
:100230009987B8975FE77EF71DC73CD7D326F2367C
:100240009106B01657667676154634564CD96DC968
:100250000EF92FE9C899E9898AB9ABA944586548CC
:1002600006782768C018E1088238A3287DCB5CDBBC
:100270003FEB1EFBF98BD89BBBAB9ABB754A545A1C
:10028000376A167AF10AD01AB32A923A2EFD0FED88
:100290006CDD4DCDAABD8BADE89DC98D267C076C6C
:1002A000645C454CA23C832CE01CC10C1FEF3EFF5C
:1002B0005DCF7CDF9BAFBABFD98FF89F176E367EBC
:1002C000554E745E932EB23ED10EF01E11241FBE09
:1002D000CFEFD1E2DEBFCDBF12E0A0E0B2E0E2E2BC
:1002E000FCE200E00BBF02C007900D92AE34B107F4
:1002F000D9F715E0AEE4B2E001C01D92A833B10712
:10030000E1F70E94E6040C9410160C9400008F7321
:10031000806C28988EBD0DB407FEFDCF6EBD0DB468
:1003200007FEFDCF289A08958F73806828988EBDA8
:100330000DB407FEFDCF8EBD0DB407FEFDCF8EB50B
:10034000289A99270895BF92CF92DF92EF92FF9259
:100350000F931F93B82ED62EC42E022FEFB6F8940B
:10036000FF240E949401112702C0000F111FCA949C
:10037000E2F76D2D6023D094D8226D298B2D0E9439
:100380008701EFBE1F910F91FF90EF90DF90CF900C
:10039000BF9008950F931F930FB7F89411270E94F1
:1003A00087010FBF1F910F91089580916E0081FD0D
:1003B00024C080916F0085FD20C00CB407FC1DC0D7
:1003C0008091C900887DC9F480917A0087FF03C0BD
:1003D00082E090E014C08091700099278370907043
:1003E000892B19F484E090E00AC08091B3009091C9
:1003F000B200891B803180F013C080E090E0382F7C
:1004000083B712C000008091B60099278F71907059
:10041000892BC1F7822F08C023B7217F3EE0F3CF9D
:1004200023B7217F36E0EFCF817F832B83BF83B754
:10043000816083BF08958FBF08958FB7F89499277F
:10044000089509C000000000000000000000000046
:1004500000000000019718161906A4F30895282F2C
:10046000FB019FB7F894289880E68EBD0DB407FE77
:10047000FDCF2EBD0DB407FEFDCF80818EBD215076
:1004800011F03196F7CF0DB407FEFDCF289A892FD2
:1004900099278FBF0895FC013FB7F894DC011196AE
:1004A000E081E23040F12E2F225040E050E090E019
:1004B00016C0FD01E90FF11D80814827042E4295E9
:1004C000407F4025052E542F42954F7004264695B7
:1004D00054274527440F440F440F40259F5F921730
:1004E00041F7FD01E20FF11D40832F5FA20FB11D07
:1004F000852F99278C93832F99278FBF08959FB7B6
:10050000F8948091B40410927404823019F083E05E
:100510008093B404E091B004F091B10480818B50D9
:100520008083892F99278FBF10922D0508950E94EF
:100530007F020895BC018FB7F894482F552720916A
:10054000AA04E22FFF27EE0FFF1FE05DFB4F808123
:100550009181892B51F42F5F2F712093AA0471830D
:1005600060834FBF81E090E008954FBF80E090E04E
:1005700008958FB7F89499271092CB040A9A089A95
:10058000099A129A109A119A8FBF81E090E008950B
:1005900080915102882371F581E0809351028FB7D9
:1005A000F894992710925A0310925B0349EF4093F5
:1005B0005C0338ED30935D032EE120935E031092CF
:1005C0005F0310926003109261038FBF8FB7F8949E
:1005D00099278FBF109252031092530340935403F4
:1005E00030935503209356031092570310925803EB
:1005F0001092590310922E0510922F05109230057B
:10060000109231051092AB048FEF809332058093E6
:10061000180410922E0493E09093AD0446EE40939C
:10062000B6042FB7F8943327809170008E7F8093A3
:100630007000809170008D7F809370008091B60073
:1006400080628093B6009093C8044093700482E067
:100650008093B0009093B1001092B2004093B30029
:10066000809170008260809370002FBF81E090E0E5
:1006700008958FB7F89444E653E05093BE04409336
:10068000BD041092BC041092BB041092BA042DEB6E
:1006900033E03093C4042093C3041092C204109238
:1006A000C1041092C004109226051092A604109264
:1006B000A5041092200410921F041092630310925C
:1006C00062031092170410921604109225051092DE
:1006D000B2041092270510922A0410922904109255
:1006E0007204109271045093CA044093C90499276C
:1006F0008FBF08952FB7F89433274091310250915E
:10070000320281E597E3BC01469FC001479F900DEF
:10071000569F900D11248F5A984C9093C604809345
:10072000C504909334058093330585E89FE0BC01B0
:10073000469FC001479F900D569F900D11248B57E7
:10074000904F90932304809322042FBF81E090E088
:10075000089516980000169A88E790E00000019727
:10076000E9F72091360240E06FE085E00E94A301A6
:100770002091370240E06FE188E00E94A3016CE421
:100780008EE00E94CA0168E083E00E94CA010895D9
:10079000E1E8F0E0808180648083B59A81E090E0B8
:1007A000089526E040E06FE182E00E94A3010895F1
:1007B0000E94D103089580912C0490912D040197FB
:1007C00090932D0480932C04892B41F483E0809333
:1007D000B404109274040E94D80308952F9A81E003
:1007E00090E00E9421022F98089580913D02882375
:1007F00029F485ED91E00E949A0206C083B7817FBB
:1008000083BF83B7816083BF80E090E008950E943A
:10081000F503992708950E94F503992708950F93EA
:100820001F930FB7F8941127E1E8F0E080818E7FE5
:10083000808380818D7F80838081877F808380819A
:100840008F7E8083EFE6F0E08081806280830E946B
:10085000F50383E08093B4040FBF81E090E01F9123
:100860000F91089590912E04992309F43CC0809132
:100870001804833019F48FEF80931804E091180462
:10088000EF5FE0931804915090932E04FF27E65EEB
:10089000FB4F80819927843030F5882319F083300D
:1008A00011F50DC080917C0490917D0490932905F1
:1008B0008093280510927D0410927C0408950E9474
:1008C000A9030E94C8030E94D10388EC90E00000B5
:1008D0000197E9F78FB7F894992722E020934F0208
:1008E0008FBF0E940F040895DF92EF92FF920F9343
:1008F0001F93962F843008F061C062300CF05EC008
:10090000662331F4233031054105510508F456C002
:10091000682F7727FB01A3E0EE0FFF1FAA95E1F7F1
:10092000E60FF71FE058FB4F218332834383548344
:100930009083DFB6F8948091B20079018A01E80EC5
:10094000F11C011D111DE582F6820783108721E04D
:1009500030E040E050E004C0220F331F441F551F19
:100960006A95D2F780912E0590912F05A0913005C0
:10097000B0913105822B932BA42BB52B80932E05A0
:1009800090932F05A0933005B09331058091B60464
:100990009927AA27BB27E816F9060A071B0740F480
:1009A000E092B604E092B3001092AB040E940B04F4
:1009B0008D2D99278FBF81E090E002C080E090E00C
:1009C0001F910F91FF90EF90DF900895CFEFD1E24C
:1009D000DEBFCDBF0A9A089A099A3F9A3E9A3D9A7D
:1009E0003C9A3B9A3A9A399A389A0C9814980B9AEE
:1009F000539A559A139A129A109A119A8AE08093F0
:100A000021041092AA0410927804E0E3F4E0118229
:100A10001082329624E0E037F207C9F70E94B9024B
:100A20008FB7F8942091CB0420FF03C0129A2E7F39
:100A300002C0129821602093CB0499278FBF0E9497
:100A4000C8020E9439038FB7F89499271092AE0418
:100A50008FBF0E94C8022FB7F89433272398229A99
:100A6000219A209A289A11E01DBD80E58CBD279A15
:100A70000E9A54985698169A2F985C985E982FBFA5
:100A80000E94B9020E947A032FB7F894332710927C
:100A900050021092B40410937A0410922B05109215
:100AA0007404109224041092AC048CEC94E09093A3
:100AB0007F0480937E042FBF0E947A0310922D053D
:100AC000109229051092280510927D0410927C0442
:100AD0000E9439038091380290913902A0913A0224
:100AE000B0913B0280302BE4920720E0A20720E087
:100AF000B20701F181302BE4920720E0A20720E049
:100B0000B20730F480589542A040B04049F50EC07D
:100B1000803021EE920720E0A20720E0B20771F0BA
:100B20008050924CA140B040D9F40CC01092C50046
:100B30008FE50BC01092C5008FE207C01092C50070
:100B40008FE003C01092C50087E08093C40082E06C
:100B50008093C00086E08093C20088ED8093C1003E
:100B60008FB7F894282F33278091B404813061F037
:100B700041E04093B4042FBF8FB7F8949927209198
:100B80004F02213019F408C02FBF31C040934F02EB
:100B90008FBF222319F022C08FBF29C08AE892E0BC
:100BA00000000197E9F728E040E06FE182E00E9451
:100BB000A30180E091E000000197E9F70E94A903FA
:100BC0000E94C8030E94D10388EC90E000000197C6
:100BD000E9F785E092E10E949A0209C02F9821E08E
:100BE00030E040E050E061E083E00E94740428EED1
:100BF00033E040E050E060E080E00E947404109236
:100C00002D050E94F50378948FB7F894209178040D
:100C1000E22FFF27EE0FFF1FE05DFB4F4081518168
:100C20004115510529F47894889500000000ECCF17
:100C3000118210822F5F2F712093780499278FBF24
:100C4000FA010995E1CF982F8A30B9F48091C0005C
:100C500085FFFCCF8DE08093C6008091C00085FFAA
:100C6000FCCF8AE08093C6008091C00086FFFCCF55
:100C700084E690E00E94210208958091C00085FFE3
:100C8000FCCF9093C6008091C00086FFFCCF0895F2
:100C90000F931F930FB7F89411270E9494010FBF71
:100CA00099271F910F9108950E944806992708954A
:100CB00029E040E06FE182E00E94A30108951F92C5
:100CC0000F920FB60F921124DF92EF92FF920F93C3
:100CD0001F932F933F934F935F936F937F938F93C4
:100CE0009F93AF93BF93EF93FF93CF93DF93CDB7D2
:100CF000DEB72997DEBFCDBF809186009091870037
:100D00008FE00E9448069927898389818C748983A2
:100D1000898182FF0DC080915002843049F4109285
:100D2000500210922C0580916E008D7F80936E0092
:100D3000898183FF2CC19091B4048091740488232D
:100D400009F021C180912B05882309F020C1923040
:100D500009F41DC181E080932B0540917E045091E0
:100D60007F04289880E28EBD0DB407FEFDCF1EBC27
:100D70000DB407FEFDCF6EB5762F7F5FFA0170834D
:100D8000862F83508F3408F048C0DA0111961EBCBC
:100D90000DB407FEFDCF8EB58C93972F9250FD01B9
:100DA00020E030E01EBC81912827022E2295207F72
:100DB0002025032E322F22952F70022626953227CA
:100DC0002327220F220F220F20250DB407FEFDCF6F
:100DD0008EB58083915031F76250FD01E60FF11D11
:100DE000DF0111961EBC81812827022E2295207FCB
:100DF0002025032E322F22952F700226269532278A
:100E00002327220F220F220F20250DB407FEFDCF2E
:100E10008EB5FD018183232B21F0FA011082289ADF
:100E20003EC0289AD72EF5E0F717C8F500917E044A
:100E300010917F04F801818199278770907082302A
:100E4000910539F58091B404873049F593818091FB
:100E5000AC04981721F588E08093B404E091B004C5
:100E6000F091B104EA5AFF4F81E080831092500262
:100E700010922C0580916E008D7F80936E001092F1
:100E80002B0587E992E00E949A02882309F07FC02F
:100E900003C0019721F406C00E947F0278C010921F
:100EA0002B0575C086E00E94540687E00E94540618
:100EB0000D5A1F4FF8018083E0917E04F0917F046A
:100EC00026813781809131029091320228173907AB
:100ED00069F5918580913C02981741F5138123E0D3
:100EE00040E06FE182E00E94A3010E94580684E680
:100EF00090E000000197E9F785E08C8382E08D8324
:100F00001E821F83CE0104960E944B02BE016B5FBE
:100F10007F4F85E00E942F022F9A00002F9880E9D2
:100F200091E000000197E9F70E94D803E0917E0468
:100F3000F0917F042681378141E04A831B828A81B8
:100F40009B81019719F0E32EF22E970137832683B8
:100F5000EB5AFF4F4083A0917E04B0917F04FD01C6
:100F6000ED0DF11D31978081AC5ABF4F8C93E0910C
:100F70007E04F0917F0480818C50808384EF91E126
:100F80000E949A0204C09A3011F40E94DB03898106
:100F900086FF06C08091B4048A3011F40E94DB03FE
:100FA0002996F894DEBFCDBFDF91CF91FF91EF91ED
:100FB000BF91AF919F918F917F916F915F914F9171
:100FC0003F912F911F910F91FF90EF90DF900F9025
:100FD0000FBE0F901F901895982F683018F080E082
:100FE00090E008952FB7F894332715BC80916E00D8
:100FF0008E7F80936E0080916E008D7F80936E0057
:1010000060932B049093730416BC97BDA99A8091AA
:101010006E00826080936E0014BC65BD2FBF81E0BE
:1010200090E008959B01AC01609325047093260421
:10103000809327049093280481E080932C052F3F10
:1010400031054105510521F018F064E08FEF02C031
:1010500064E0822F0E94EC070E94070481E090E088
:101060000895CF93DF934FB7F8948091C504909182
:10107000C6049C01220F331F97FF04C08BE090E150
:10108000282739272F5F3F4F3093C6042093C5048C
:10109000842F99278FBF60912204709123046227C7
:1010A00073276F7070706F5F7F4F8FEF6F3F7807A0
:1010B00009F18FB7F894C82FDD278091500288235B
:1010C00099F581E0809350026115710541F48DEA34
:1010D00099E00E949A02CFBF8823E1F40BC084E01C
:1010E000660F771F8A95E1F7882799270E941208D3
:1010F000CFBF10C08FB7F894992729E02093B4048C
:101100008FBF87E992E00E949A02882379F40E94B7
:101110007F020CC02FB7F8943327809124048F5F8F
:10112000809324042FBF02C0CFBFE4CFDF91CF91C3
:1011300008951F93CF93DF93182F0E94D803112394
:1011400079F48FB7F894992729E02093B4048FBFDE
:1011500087E992E00E949A02882309F048C036C0CD
:1011600080917A04882329F1E091B004F091B104D0
:10117000868197818F5F9F4FE1F08FB7F894992711
:1011800027E02093B404109274048FBF8FB7F894B3
:10119000C82FDD27809150028823D9F482E0809304
:1011A000500268E270E080E090E00E941208CFBF39
:1011B0001EC08FB7F894992728E02093B4048FBFFE
:1011C00087E992E00E949A02882389F40E947F02B4
:1011D0000EC0CFBF8FB7F894992728E02093B404AE
:1011E0008FBF87E992E00E949A02882379F3DF910A
:1011F000CF911F910895CF93DF938FB7F8949927DC
:1012000020915002109250028FBF223009F471C019
:10121000233009F488C0213009F09AC09FB7F894B0
:101220003091B40480912B05882319F42093740421
:1012300020E0892F99278FBF323009F46BC0222319
:1012400009F07BC021E047E060E888E00E94A3014C
:1012500088EC90E000000197E9F781E00E945406D5
:1012600087FF03C086FF63C00BC00E94A9030E94D2
:10127000D10388EC90E00000019709F458C0FBCF3F
:101280008FB7F894992726E02093B4048FBF0E946B
:1012900058068091B0049091B1040E944B02609175
:1012A000B0047091B1046F5F7F4F809179040E9408
:1012B0002F022F9A00002F9880917904895F9FB7A1
:1012C000F894C92FDD2790915002682F7727992332
:1012D000B9F583E080935002882799270E9412086D
:1012E000CFBF36C000006150704016161706D4F309
:1012F0001AC08FB7F894282F3327422F9091B40447
:10130000973011F488E003C0923009F589E08093AA
:10131000B4044FBF87E992E00E949A028823C1F487
:101320000E947F0215C081E00E94990811C08FB70A
:10133000F8949927109274048FBF0E94310808C056
:10134000CFBFE5E0660F771FEA95E1F7CECF2FBF5D
:1013500081E090E0DF91CF9108950E94FB0808950D
:10136000843018F48A5F99270895843019F480E056
:1013700090E008958B5F992708951F920F920FB602
:101380000F921124DF92EF92FF920F931F932F93EE
:101390003F934F935F936F937F938F939F93AF93FD
:1013A000BF93CF93DF93EF93FF938091C00087FFAC
:1013B000B8C10091C60080912505823009F464C04F
:1013C000833030F4882359F0813009F0A8C12CC053
:1013D000833009F492C0843009F0A1C14AC10E37AC
:1013E00009F09FC18091B2049927FC01EE0FFF1F05
:1013F000E80FF91FEE0FFF1FE754FB4F8281938127
:10140000892B09F08EC1118210927204109271041E
:1014100010922A0410922904848195819093CA0421
:101420008093C90481E02DC00E3709F47AC1809100
:10143000B2049927FC01EE0FFF1FE80FF91FEE0F12
:10144000FF1FE754FB4F0083809171049091720459
:10145000ECECF0E0202F2927220FF11DE20FF11D07
:10146000C895982F802D3196C89590259093720439
:1014700080937104013421F0023409F050C14DC150
:1014800082E0809325054DC10E3709F448C12091B3
:10149000B2040D3771F4822F9927FC01EE0FFF1F64
:1014A000E80FF91FEE0FFF1FE754FB4F80E2818327
:1014B00038C1822F9927FC01EE0FFF1FE80FF91F9B
:1014C000EE0FFF1FE754FB4F2181202721838091DE
:1014D000710490917204ECECF0E02927220FF11DC9
:1014E000E20FF11DC895982F802D3196C895902553
:1014F000909372048093710410C1C0912904D0911B
:101500002A04C535D10508F0B6C00D3711F484E0C2
:10151000B8CF0E3709F075C0C230D10508F457C0F6
:10152000E090C904F090CA048C2F81500E94B00949
:10153000F701E80FF11D00818C2F82500E94B00945
:10154000E80EF11CF70180811127102F0027992741
:10155000082B192B80917104909172042091B20490
:101560000817190739F5822F9927FC01EE0FFF1F85
:10157000E80FF91FEE0FFF1FE754FB4F2297D383AD
:10158000C28384E690E10E949A028091B2048F5F48
:1015900081708093B2049927FC01EE0FFF1FE80FC2
:1015A000F91FEE0FFF1FE754FB4F82819381892BB8
:1015B00021F01CC0822F99270DC0848195819093C2
:1015C000CA048093C90481E08093250511C08091ED
:1015D000B2049927FC01EE0FFF1FE80FF91FEE0F71
:1015E000FF1FE754FB4F13821282118210922505D0
:1015F000109272041092710410922A04109229041D
:1016000090C08C2F0E94B009E091C904F091CA04E7
:10161000E80FF11D0083C0912904D0912A04C23043
:10162000D10508F19E012250822F0E94B009E0915D
:10163000C904F091CA04E80FF11D20818091710462
:1016400090917204ECECF0E02927220FF11DE20FDB
:10165000F11DC895982F802D3196C89590259093AF
:101660007204809371042196D0932A04C0932904B4
:1016700058C00E37C1F41092720410927104109287
:101680002A04109229048091B2049927FC01EE0FDC
:10169000FF1FE80FF91FEE0FFF1FE754FB4F1382E8
:1016A000128211823CC080E20827809129040E94A6
:1016B000B009E091C904F091CA04E80FF11D00835C
:1016C000C0912904D0912A04C230D10508F1FE014D
:1016D000E2508E2F0E94B009E091C904F091CA0433
:1016E000E80FF11D20818091710490917204ECEC5F
:1016F000F0E02927220FF11DE20FF11DC895982F68
:10170000802D3196C8959025909372048093710432
:101710002196D0932A04C093290483E0B2CE10927C
:101720002505FF91EF91DF91CF91BF91AF919F91EF
:101730008F917F916F915F914F913F912F911F9169
:101740000F91FF90EF90DF900F900FBE0F901F90C2
:101750001895482F8FB7F89499273091AE0421E05F
:101760002093AE048FBF332319F080E090E00895FA
:101770002FB7F89433274093C6008091C00080644F
:101780008093C0002FBF81E090E008951F938FB732
:10179000F894282F80912605882361F580913705DC
:1017A000992781FF08C083EB94E09093770480939E
:1017B000760480E41AC082FF0FC0E0911604F09115
:1017C0001704F0937704E093760482E4809319047D
:1017D000808199270A961DC083FF0CC08EE194E09A
:1017E00090937704809376048FEF8093190481E0BF
:1017F00090E00FC02FBF11E028C08FB7F894992751
:1018000028E0209326058FBF8FE092E10E949A0284
:101810001CC09093200480931F0481E080932605D0
:101820002FBF2FB7F89433271092630310926203EF
:1018300086E090E09093A6048093A5042FBF8EE7E6
:101840000E94A90B182F8130C1F6812F99271F9173
:1018500008954091B5048FB7F894282F33279091BD
:10186000370591FD09C09260909337054093B3040A
:101870002FBF0E94C60B08952FBF0895382F8D5794
:10188000823070F48FB7F894992720912605209321
:10189000C70423E02093260530932A058FBF3DE738
:1018A000832F0E94A90B9927089578941F920F9275
:1018B0000FB60F9211242F933F934F935F936F9323
:1018C0007F938F939F93AF93BF93EF93FF938FB7C4
:1018D000F89499272091AE041092AE048FBF222372
:1018E00009F4B9C080912605873031F4109226059D
:1018F0008FE092E10E949A0280912605833009F4DC
:101900007CC0843030F4813071F0823009F0A3C0A3
:1019100026C0853009F483C0853008F47AC086304B
:1019200009F489C098C082E080932605809119044B
:101930002091620330916303ECECF0E0982F932741
:10194000990FF11DE90FF11DC895322F202D319609
:10195000C8953025309363032093620370C0809153
:101960001904E0917604F0917704803431F080918D
:10197000A5049091A604E80FF91F408180916203AD
:1019800090916303ECECF0E0242F2927220FF11D46
:10199000E20FF11DC895982F802D3196C89590259E
:1019A00090936303809362038091A5049091A604B1
:1019B00001969093A6048093A5048A30910529F49A
:1019C0001092A6041092A50408C0019731F48AE091
:1019D00090E09093A6048093A5042091A5043091F3
:1019E000A60480911F04909120042817390718F04D
:1019F00084E080932605842F1BC080912A0590E205
:101A000089270E94A90B982F8091C70480932605EF
:101A100019C08091620395E09093260509C08091DA
:101A2000620390916303892F992726E0209326056E
:101A30000E943E0C06C087E0809326058EE70E9438
:101A4000A90B982F913039F088E0809326058FE01C
:101A500092E10E949A02FF91EF91BF91AF919F9105
:101A60008F917F916F915F914F913F912F910F9047
:101A70000FBE0F901F9018955F926F927F928F927A
:101A80009F92AF92BF92CF92DF92EF92FF920F930D
:101A90001F93CF93DF93CDB7DEB722970FB6F8949D
:101AA000DEBF0FBECDBFFE01749661907190FA83C8
:101AB000E9838091B704882399F41092C50087E0E8
:101AC0008093C40082E08093C00086E08093C200CF
:101AD0008091C60088E08093C10081E08093B704C4
:101AE0006114710421F450E0652E52E0752E5524E6
:101AF00004C055240894611C711C552031F00AC0A3
:101B0000882309F4FCC00E942306D3018D913D0176
:101B10008532B1F7F3019080FCE69F1611F1F915BB
:101B200080F083E6981601F1891520F093E5991667
:101B300011F525C0A4E69A16E9F1B9E69B16D9F489
:101B400039C0E3E79E16D9F0E91520F0FFE69F16AD
:101B500091F425C085E7981669F198E7991659F42C
:101B60003EC041E0542EC6CFE981FA813296FA8315
:101B7000E98332979080892D0E942306BBCFE981AB
:101B8000FA813296FA83E9831291029102C00E948F
:101B90002306D8018D918D018823C9F7ABCF55203D
:101BA00009F499C0A12CB12CC12C30E4D32E28E02B
:101BB000822E26C0552049F490E1A92E97E2B92E35
:101BC000C12CD12C8AE0882E8DC0A12C0AECB02E1D
:101BD0000AE9C02E0BE3D02E1AE0812E11C0552049
:101BE00041F4A12CB0E1BB2EC12CD12CA0E18A2E56
:101BF00079C0A12CB12CC12CF0E1DF2EE0E18E2EBA
:101C0000E981FA813496FA83E98312910291F29084
:101C1000E290B4E69B1619F0E9E69E1641F55520D0
:101C200019F4F7FE19C002C017FF16C010950095F1
:101C3000F094E094E11CF11C011D111D8DE20E9445
:101C400023060AC0C601B5012AE030E040E050E0BA
:101C50000E94B71559016A01F2E0AF16B104C10440
:101C6000D10428F0EA14FB040C051D0558F388E79D
:101C7000981651F4552041F48FEF9FEFA0E0B0E0AB
:101C8000E822F9220A231B23C801B701A601950106
:101C90000E94B715DA01C901825C9D4FDC018C916D
:101CA0000E942306C801B701A60195010E94B7153D
:101CB0007B018C01282D332744275527C601B50108
:101CC0000E94B71559016A012115310541055105D9
:101CD00009F40FCFD9CFA12C70E8B72EC12CD12C8D
:101CE00068E0862EE981FA813296FA83E98392913F
:101CF00082917C010027F7FC0095102F8ACF80E0AD
:101D000090E022960FB6F894DEBF0FBECDBFDF91F4
:101D1000CF911F910F91FF90EF90DF90CF90BF90E8
:101D2000AF909F908F907F906F905F900895EF920B
:101D3000FF920F931F93CF93DF93CDB7DEB7289712
:101D40000FB6F894DEBF0FBECDBF7C0120913102EB
:101D50003091320280917C0490917D0401969093A1
:101D60007D0480937C0445E550E0E40EF51EF70108
:101D700080814BEA5FEFE40EF51E813009F05CC014
:101D8000F701918580913C02981709F055C0868132
:101D90009781FFEF8F3F9F0721F08217930709F08C
:101DA0004BC0F7018085813709F046C0FE013196AE
:101DB000D7011E969E01275F3F4F8D918193E217B9
:101DC000F307D9F78FB7F8942091CB0422FF03C013
:101DD000109A2B7F02C0109824602093CB0499277F
:101DE0008FBF8F8198859F938F938D819E819F93C5
:101DF0008F938B819C819F938F9389819A819F93ED
:101E00008F9386E092E09F938F9302E512E01F93F9
:101E10000F930E94A2121F930F938EE292E09F9362
:101E20008F930E943C0D4DB75EB7405F5F4F0FB67A
:101E3000F8945EBF0FBE4DBFC70128960FB6F89449
:101E4000DEBF0FBECDBFDF91CF911F910F91FF90ED
:101E5000EF900895FC0180913C028187CF010E94A0
:101E6000970E089578941F920F920FB60F92112437
:101E70007F928F929F92AF92BF92CF92DF92EF921A
:101E8000FF920F931F932F933F934F935F936F9303
:101E90007F938F939F93AF93BF93EF93FF93CF93D2
:101EA000DF93CDB7DEB72897F894DEBF7894CDBF27
:101EB0009FB7F89480912F04882361F08091A70444
:101EC0008093C8048093B100809170048093B30024
:101ED00010922F04892F99278FBF7FB6F894809195
:101EE000A8049091A904892B21F484EC90E10E942C
:101EF0009A028091A8049091A9042091B3000196C0
:101F0000820F911D9093A9048093A8048091B3003F
:101F10009927AA27BB2789839A83AB83BC831D8219
:101F20001E821F82188680905A0390905B03A090B7
:101F30005C03B0905D03C0905E03D0905F03E090BF
:101F40006003F09061030981080D81E0081508F035
:101F500080E01A81190DA1E0191508F0A0E0810FA9
:101F600091E0811708F090E0A92B182F2B812A0D02
:101F7000B1E02A1508F0B0E08A2F820F91E08217B5
:101F800008F090E0B92B282F3C813B0DA1E03B15D8
:101F900008F0A0E08B2F830F91E0831708F090E00A
:101FA000A92B382F4D814C0DB1E04C1508F0B0E055
:101FB0008A2F840F91E0841708F090E0B92B482F06
:101FC0005E815D0DA1E05D1508F0A0E08B2F850F0F
:101FD00091E0851708F090E0A92B582F6F816E0DC6
:101FE000F1E06E1508F0F0E09A2F960F81E0961759
:101FF00008F080E08F2B78857F0D870F00935A03C0
:1020000010935B0320935C0330935D0340935E0366
:1020100050935F039093600380936103872D99270A
:102020008FBF2896F894DEBFCDBFDF91CF91FF918F
:10203000EF91BF91AF919F918F917F916F915F9140
:102040004F913F912F911F910F91FF90EF90DF9053
:10205000CF90BF90AF909F908F907F900F900FBECA
:102060000F901F90189578941F920F920FB60F92B1
:1020700011242F938F939F932FB7F8948091A404EA
:102080008823B9F08091750480937B048091750456
:10209000886080937504809175048093810080919D
:1020A00035059091360590938900809388001092B1
:1020B000A404822F99278FBF9F918F912F910F900A
:1020C0000FBE0F901F9018950F931F93CF93DF9320
:1020D0009091270586E0989F8001112407541B4F9B
:1020E000F801C481D58182819381059740F1808177
:1020F000813429F0823491F08034D9F420C0CB5A55
:10210000DF4F81E08883C555D040F80181818093FD
:10211000B50489E29CE00E949A0206C0CB5ADF4FC8
:1021200081E08883C555D040CE010E942A0FEC0182
:1021300006C080931E0488EB90E10E949A029FB72C
:10214000F894209719F0F801D583C483F80113821D
:1021500012821182809127058F5F817080932705FD
:10216000892F99278FBFDF91CF911F910F910895EC
:102170002FB7F8943327809137058860809337050F
:102180002FBF0E94C60B08959F92AF92BF92CF922D
:10219000DF92EF92FF920F931F93CF93DF9381E033
:1021A0008093AB048FB7F8949927A090A804B090BF
:1021B000A9041092A9041092A8048FBF80912E0543
:1021C00090912F05A0913005B09131050097A105A0
:1021D000B10509F494C0C0E8D4E0CC24DD249C2CE3
:1021E00011E0E12EF12C012D112D0C2C04C0EE0C70
:1021F000FF1C001F111F0A94D2F780912E059091A9
:102200002F05A0913005B09131058E219F21A0238B
:10221000B1230097A105B10509F468C08D819E81A5
:10222000AF81B885950144275527821B930BA40BDA
:10223000B50B8D839E83AF83B8870397A105B10546
:102240000CF054C082E394E00E949A02882309F4BF
:1022500044C08881882389F48D819E81AF81B885AF
:1022600029813A814B815C81820F931FA41FB51F86
:102270008D839E83AF83B8871AC0A80197012095EC
:1022800030954095509580912E0590912F05A09105
:102290003005B091310582239323A423B523809385
:1022A0002E0590932F05A0933005B09331058091B2
:1022B0003205833019F48FEF80933205E0913205B7
:1022C000EF5FE093320580912E048F5F80932E04A0
:1022D000FF27E65EFB4F908209C08091B6049927E4
:1022E000AA27BB278D839E83AF83B8870894C11C20
:1022F000D11C299684E0C816D10409F070CF8FB79D
:10230000F89499272091A8043091A9048FBF232B1A
:1023100009F05EC0E0902E05F0902F050091300589
:1023200010913105E114F1040105110509F443C0D0
:10233000B6EE9B2E60E070E0E5E8F4E0A1E0AA2EA6
:10234000B12CC12CD12CD601C501062E04C0880F9A
:10235000991FAA1FBB1F0A94D2F78E219F21A02389
:10236000B1230097A105B10571F02081318142812F
:102370005381892D9927AA27BB27281739074A0790
:102380005B070CF4922E6F5F7F4F399664307105B6
:10239000D1F68FB7F894282F33279091B2009D5F24
:1023A000991508F4992D9093B6049093B300109268
:1023B000AB042FBF0BC08FB7F894992726EE20935C
:1023C000B6042093B3001092AB048FBF0E940B049D
:1023D000DF91CF911F910F91FF90EF90DF90CF9001
:1023E000BF90AF909F90089580917E0490917F045C
:1023F0000E94970E2FB7F894332790937F04809311
:102400007E0410922B052FBF08958FB7F89499275B
:1024100022E020934F028FBF0E940F0408959FB7C0
:10242000F89480912605883011F410922605892FA2
:1024300099278FBF8091190430913705803441F47A
:102440008FB7F894992722E032273093370511C0CF
:102450008FB7F894992724E03227309337058FBF40
:1024600010922D058FB7F8949927109217041092A7
:1024700016048FBF0E94C60B089578941F920F9286
:102480000FB60F9211242F933F934F935F936F9347
:102490007F938F939F93AF93BF93EF93FF939FB7D8
:1024A000F8948091B804882351F08091AF04809310
:1024B0002B0485BD8091730487BD1092B804892FC9
:1024C00099278FBF8FB7F8949927209125043091D1
:1024D00026048FBF2F3F310580F480916E008D7FE1
:1024E00080936E008FB7F894992710922C058FBFB8
:1024F0000E94FB080E94070414C0832F99276FB71E
:10250000F89477279C01442755272093250430937E
:10251000260440932704509328046FBF64E00E9470
:10252000EC07FF91EF91BF91AF919F918F917F91B8
:102530006F915F914F913F912F910F900FBE0F9030
:102540001F901895A0E1B0E0E8EAF2E10C94E715DD
:102550000F89188D86E08E831C830B838FEF9FE796
:1025600098878F83AE01455E5F4F5A834983698D9B
:102570007A8DCE0103960E94C71229853A85020FF3
:10258000131FF8011082E4E060960C940316A4E196
:10259000B0E0EDECF2E10C94D915CC24DD24760109
:1025A0001C017C8B6B8B2A01FC01178216828381B4
:1025B00081FD03C08FEF9FEF8AC2AA24BB2473C2A0
:1025C000A0FE58C28A8980538A30E8F4FA89F03331
:1025D00041F42D85222329F4A3FC03C080E091E07F
:1025E0006FC08AE0ED85E802C0011124FA89F80F76
:1025F000F053FD87F7FF02C02FE72D87A3FC4DC2E4
:102600003D853E874AC2C50188709070A3FE05C013
:10261000ED85EE2311F4F1E0FD872A89283624F5B3
:1026200025360CF05BC0233509F480C024358CF4CA
:102630002B32C1F12C3234F42032C1F1233209F0B3
:102640000EC23CC03A893D32B1F13E3209F007C2B8
:102650003AC08A89833609F449C084360CF081C0B7
:10266000883509F0FCC11BC0EA89E03709F4A3C032
:10267000E13744F4EC3669F1EF3671F0E93609F0F0
:10268000EEC16FC0FA89F53709F49DC0F83739F00B
:10269000F33709F0E4C134C028E0298B94C030E15D
:1026A000398B91C080E190E0A82AB92AE0E2F0E0FD
:1026B000AE2ABF2AF2C120E830E00DC080E490E0ED
:1026C000A82AB92AEAC1E8E0F0E0AE2ABF2A1D86AE
:1026D000E4C124E030E0A22AB32ADFC14FE3C42ED4
:1026E0003E8531503E8783E68A8B44C1F201C0802B
:1026F000FE85F150FE8722E030E0420E531E3AC1C3
:10270000F201C080D180892B49F0FD856F2F77279A
:1027100067FD7095C6010E947F1519C0F6010190F2
:102720000020E9F73197EC19E98B12C0F201C08063
:10273000D180892B49F0FD856F2F772767FD709534
:10274000C6010E94741503C0C6010E946B15898BD7
:1027500022E030E0420E531E3E858989381B3E87B9
:1027600009C1A2FE08C0F20180819181A281B381DA
:1027700024E030E009C0F20180819181AA2797FD11
:10278000A095BA2F22E030E0420E531E6C017D016D
:10279000B7FF0CC082E090E0A82AB92AF094E09438
:1027A000D094C094C11CD11CE11CF11CEFEBFFEFD5
:1027B000AE22BF2221C020E430E0A22AB32A38E7AB
:1027C0003A8B80E1898BA2FE08C0F2018081918161
:1027D000A281B38124E030E007C0F20180819181C1
:1027E000AA27BB2722E030E0420E531E6C017D0178
:1027F0008FEC9FEFA822B92287017601FE01319666
:10280000F88BEF87F9896F2E772488249924C801E3
:10281000B701A40193010E94B7156A3024F02A89F8
:10282000620F615201C0605DEF85F8896193F88B9A
:10283000EF87C801B701A40193010E94B715790180
:102840008A01211531054105510509F7CC24DD2404
:102850007601CE010196CF84C81AC50182739070AB
:10286000892B19F0FE85F150FE87A6FE09C0298943
:10287000203111F482E001C081E03E85381B3E87A3
:1028800038E0832E912C8A209B20A3FE1BC08D85CF
:10289000282F332727FD30958C2D992782179307F2
:1028A00054F0E7EFFFEFAE22BF2228E0822E912CFA
:1028B0008A209B2007C0FD85FC19FD872E852F1BD4
:1028C0002E8703C03E853C193E87C50180789170F4
:1028D000892B69F48E8506C0B10180E290E00E94E8
:1028E0008A15812F182F11501816B4F31E87A1FED8
:1028F00004C0B1018DE290E00BC0A4FE04C0B101A0
:102900008BE290E005C0A5FE05C0B10180E290E039
:102910000E948A15A6FE10C0B10180E390E00E94DB
:102920008A158989803141F4B101EA898E2F99276E
:1029300087FD90950E948A15B0FE0DC08E8506C059
:10294000B10180E390E00E948A15812F182F115069
:102950001816B4F31E87892869F02D8506C0B101C9
:1029600080E390E00E948A15212F122F1150121639
:10297000B4F31D8790E8692E712C6A207B20A7FC98
:102980000DC08E8506C0B10180E290E00E948A15DC
:10299000812F182F11501816B4F31E87FA89F336B9
:1029A00041F4B1018C2D992787FD90950E948A15DD
:1029B00046C02A892337B1F446015601198909C056
:1029C000F50181915F01B101992787FD90950E94E2
:1029D0008A151150A8F76401F989CF0ED11C2FEF89
:1029E000298B2DC03A89333519F00F85188920C0FD
:1029F00046018601B98809C0F801C895802DB1014A
:102A000099270E948A150F5F1F4FBA94FFEFBF16D8
:102A100099F764012989C20ED11CF98B10C0F80105
:102A200082918F01B101992787FD90950E948A15A7
:102A3000CE0101960817190791F7188B0F876728A1
:102A4000B1F08E8506C0B10180E290E00E948A1547
:102A5000812F182F11501816B4F31E8708C0B1012A
:102A6000FA898F2F992787FD90950E948A15AA24AD
:102A7000BB2413C02A89253241F43AE0398B1E86E3
:102A80001D8681E0A82EB12C08C0B101EA898E2FE5
:102A9000992787FD90950E948A152B893C892F5F85
:102AA0003F4F3C8B2B8BF101838183FF05C0EB896A
:102AB000FC89C895F02D03C0EB89FC89F081FA8B65
:102AC0002A89222309F07CCDF10186819781E2E1F8
:102AD00064960C94F515FC0105900020E9F78095AB
:102AE00090958E0F9F1F0895FC01059061507040D6
:102AF0000110D8F7809590958E0F9F1F0895FC01C7
:102B00006150704001900110D8F7809590958E0F1C
:102B10009F1F08950F931F93CF93DF938C01EB01B9
:102B20008B81992781FF1BC082FF0DC02E813F81C1
:102B30008C819D812817390764F4E881F98101931C
:102B4000F983E88306C0E885F985802F0995892BEC
:102B500031F48E819F8101969F838E8302C00FEF97
:102B60001FEFC801DF91CF911F910F910895A1E24E
:102B70001A2EAA1BBB1BFD010DC0AA1FBB1FEE1FF7
:102B8000FF1FA217B307E407F50720F0A21BB30B42
:102B9000E40BF50B661F771F881F991F1A9469F7BE
:102BA00060957095809590959B01AC01BD01CF011A
:102BB00008952F923F924F925F926F927F928F92E1
:102BC0009F92AF92BF92CF92DF92EF92FF920F93BC
:102BD0001F93CF93DF93CDB7DEB7CA1BDB0B0FB6C6
:102BE000F894DEBF0FBECDBF09942A883988488883
:102BF0005F846E847D848C849B84AA84B984C88419
:102C0000DF80EE80FD800C811B81AA81B981CE0F0F
:102C1000D11D0FB6F894DEBF0FBECDBFED010895F4
:022C2000FFCFE4
:102C22004E554C4C0A0062617474763A25752C62DA
:102C3200617474693A25752C736F6C6172763A25EA
:102C4200752C736F6C6172693A25752C0A002573B5
:102C5200000100904607000B00E100007D013031C9
:0E2C6200323334353637383941424344454623
:00000001FF
