:100000000C9466010C9485010C9485010C94850177
:100010000C9485010C9485010C9485010C94850148
:100020000C9485010C9485010C9485010C94850138
:100030000C9485010C94D2120C9485010C948501CA
:100040000C94840D0C946C120C9485010C94850115
:100050000C9485010C9407120C9485010C94850175
:100060000C9485010C94130F0C9485010C941611BB
:100070000C9485010C9485010C9485010C948501E8
:100080000C9485010C9485010C9485010C948501D8
:100090000C9485010C9485010C9485010C947615C3
:1000A0000C9485010C9485010C9485010C948501B8
:1000B0000C9485010C9485010C9485010C948501A8
:1000C0000C9485010C9485010C948501000021108D
:1000D000422063308440A550C660E77008812991B2
:1000E0004AA16BB18CC1ADD1CEE1EFF1311210025A
:1000F00073325222B5529442F772D6623993188302
:100100007BB35AA3BDD39CC3FFF3DEE36224433425
:1001100020040114E664C774A44485546AA54BB551
:1001200028850995EEE5CFF5ACC58DD553367226F9
:1001300011163006D776F6669556B4465BB77AA7A1
:1001400019973887DFF7FEE79DD7BCC7C448E55845
:100150008668A7784008611802282338CCC9EDD9F1
:100160008EE9AFF9488969990AA92BB9F55AD44A99
:10017000B77A966A711A500A333A122AFDDBDCCB41
:10018000BFFB9EEB799B588B3BBB1AABA66C877C65
:10019000E44CC55C222C033C600C411CAEED8FFD91
:1001A000ECCDCDDD2AAD0BBD688D499D977EB66E39
:1001B000D55EF44E133E322E511E700E9FFFBEEFE1
:1001C000DDDFFCCF1BBF3AAF599F788F8891A981A3
:1001D000CAB1EBA10CD12DC14EF16FE18010A1008D
:1001E000C230E3200450254046706760B98398937D
:1001F000FBA3DAB33DC31CD37FE35EF3B1029012DD
:10020000F322D2323542145277625672EAB5CBA548
:10021000A89589856EF54FE52CD50DC5E234C3242C
:10022000A01481046674476424540544DBA7FAB71C
:100230009987B8975FE77EF71DC73CD7D326F2367C
:100240009106B01657667676154634564CD96DC968
:100250000EF92FE9C899E9898AB9ABA944586548CC
:1002600006782768C018E1088238A3287DCB5CDBBC
:100270003FEB1EFBF98BD89BBBAB9ABB754A545A1C
:10028000376A167AF10AD01AB32A923A2EFD0FED88
:100290006CDD4DCDAABD8BADE89DC98D267C076C6C
:1002A000645C454CA23C832CE01CC10C1FEF3EFF5C
:1002B0005DCF7CDF9BAFBABFD98FF89F176E367EBC
:1002C000554E745E932EB23ED10EF01E11241FBE09
:1002D000CFEFD1E2DEBFCDBF12E0A0E0B2E0E8E4B4
:1002E000FCE200E00BBF02C007900D92AE30B107F8
:1002F000D9F714E0AEE0B2E001C01D92AC36B10710
:10030000E1F70E949F030C9423160C9400008F7356
:10031000806C28988EBD0DB407FEFDCF6EBD0DB468
:1003200007FEFDCF289A08958F73806828988EBDA8
:100330000DB407FEFDCF8EBD0DB407FEFDCF8EB50B
:10034000289A99270895BF92CF92DF92EF92FF9259
:100350000F931F93B82ED62EC42E022FEFB6F8940B
:10036000FF240E949401112702C0000F111FCA949C
:10037000E2F76D2D6023D094D8226D298B2D0E9439
:100380008701EFBE1F910F91FF90EF90DF90CF900C
:10039000BF9008950F931F930FB7F89411270E94F1
:1003A00087010FBF1F910F91089580916E0081FD0D
:1003B00024C080916F0085FD20C00CB407FC1DC0D7
:1003C0008091C900887DC9F480917A0087FF03C0BD
:1003D00082E090E014C08091700099278370907043
:1003E000892B19F484E090E00AC08091B3009091C9
:1003F000B200891B803180F013C080E090E0382F7C
:1004000083B712C000008091B60099278F71907059
:10041000892BC1F7822F08C023B7217F3EE0F3CF9D
:1004200023B7217F36E0EFCF817F832B83BF83B754
:10043000816083BF089509C0000000000000000033
:100440000000000000000000019718161906A4F330
:1004500008958FBF08958FB7F89499270895089548
:100460000895282FFB019FB7F894289880E68EBD49
:100470000DB407FEFDCF2EBD0DB407FEFDCF80816C
:100480008EBD215011F03196F7CF0DB407FEFDCF90
:10049000289A892F99278FBF0895FC013FB7F894B8
:1004A000DC011196E081E23040F12E2F225040E035
:1004B00050E090E016C0FD01E90FF11D8081482752
:1004C000042E4295407F4025052E542F42954F70B3
:1004D0000426469554274527440F440F440F4025D2
:1004E0009F5F921741F7FD01E20FF11D40832F5FDF
:1004F000A20FB11D852F99278C93832F99278FBF2A
:100500000895BC018FB7F894482F55272091EE032A
:10051000E22FFF27EE0FFF1FE85DFC4F80819181E6
:10052000892B51F42F5F2F712093EE037183608329
:100530004FBF81E090E008954FBF80E090E00895C4
:1005400083E096E00E94810208958FE096E00E9489
:10055000810208958FE797E00E94810208958091BB
:100560001502882371F581E0809315028FB7F89406
:10057000992710921E0210921F0249EF4093200209
:1005800038ED309321022EE12093220210922302B3
:1005900010922402109225028FBF8FB7F8949927EA
:1005A0008FBF1092160210921702409318023093D8
:1005B000190220931A0210921B0210921C02109230
:1005C0001D02109260041092610410926204109255
:1005D00063041092EF038FEF809364048093F20220
:1005E0001092260393E09093F10346EE40930504A6
:1005F0002FB7F8943327809170008E7F809370001E
:10060000809170008D7F809370008091B600806231
:100610008093B60090931D044093680382E080931A
:10062000B0009093B1001092B2004093B30080915B
:1006300070008260809370002FBF81E090E0089589
:100640002FB7F89480E992E090930D0480930C0406
:1006500010920B0410920A0410920904C096909311
:10066000130480931204C097109211041092100486
:1006700010920F04109258041092EA031092E903AA
:1006800010920A031092090310928F0210928E02A8
:100690001092F1021092F002109257041092F90396
:1006A0001092590410921A031092190310926A03BF
:1006B0001092690390931F0480931E0433272FBF69
:1006C00008958FB7F8949927109220040A9A089AEF
:1006D000099A129A109A119A8FBF81E090E00895BA
:1006E0002FB7F8943327409100025091010281E521
:1006F00097E3BC01469FC001479F900D569F900D08
:1007000011248F5A984C909315048093140490935D
:1007100068048093670485E89FE0BC01469FC001A0
:10072000479F900D569F900D11248B57904F90939B
:100730001103809310032FBF81E090E00895CFEF65
:10074000D1E2DEBFCDBF0A9A089A099A3F9A3E9A33
:100750003D9A3C9A3B9A3A9A399A389A0C9814984E
:100760000B9A539A559A139A129A109A119A8AE0F0
:1007700080930F031092EE0310927003E8E2F3E00F
:1007800011821082329683E0E836F807C9F710929A
:10079000130310920B0310920C0310920D0310928E
:1007A0000E031092F4031092760310921403109229
:1007B000F2030E94AF020E9420038FB7F89499279A
:1007C0001092F3038FBF0E94AF022FB7F894332724
:1007D0002398229A219A209A289A11E01DBD80E53B
:1007E0008CBD279A0E9A54985698169A2F985C9812
:1007F0005E982FBF0E9461030E9470032FB7F89488
:100800003327109210021092FD031093720310927E
:100810005D0410926C03109212031092F00387E2B1
:1008200094E090937803809377032FBF0E94700326
:1008300010925F0410925B0410925A041092750398
:10084000109274030E9461030E94AF020E94AF02E3
:100850003A9A8AEA92E00E94810278948FB7F894DB
:1008600020917003E22FFF27EE0FFF1FE85DFC4F82
:10087000408151814115510529F4789488950000F3
:100880000000ECCF118210822F5F2F712093700334
:1008900099278FBFFA010995E1CF16980000169AA3
:1008A00088E790E000000197E9F72091050240E019
:1008B0006FE085E00E94A3012091060240E06FE115
:1008C00088E00E94A3016CE48EE00E94CA0168E007
:1008D00083E00E94CA010895E1E8F0E0808180642D
:1008E0008083B59A81E090E0089526E040E06FE1D2
:1008F00082E00E94A30108950E94750408958091EA
:10090000240390912503019790932503809324035A
:10091000892B41F483E08093FD0310926C030E94C5
:100920007C0408952F9A81E090E00E941B022F988A
:10093000089580910C02882329F485ED91E00E94AE
:10094000810206C083B7817F83BF83B7816083BF85
:1009500080E090E008950E949904992708950E94EC
:100960009904992708950E949904992708950F934F
:100970001F930FB7F8941127E1E8F0E080818E7F94
:10098000808380818D7F80838081877F8083808149
:100990008F7E8083EFE6F0E08081806280830E941A
:1009A000B30483E08093FD030FBF81E090E01F91CB
:1009B0000F9108950E94990499270895DF92EF926C
:1009C000FF920F931F93962F873008F061C062301B
:1009D0000CF05EC0662331F423303105410551052A
:1009E00008F456C0682F7727FB01A3E0EE0FFF1F26
:1009F000AA95E1F7E60FF71FE755FC4F21833283F5
:100A0000438354839083DFB6F8948091B2007901D8
:100A10008A01E80EF11C011D111DE582F682078393
:100A2000108721E030E040E050E004C0220F331F87
:100A3000441F551F6A95D2F780916004909161041C
:100A4000A0916204B0916304822B932BA42BB52B4D
:100A50008093600490936104A0936204B093630454
:100A6000809105049927AA27BB27E816F9060A07EB
:100A70001B0740F4E0920504E092B3001092EF03EC
:100A80000E94AF048D2D99278FBF81E090E002C0B6
:100A900080E090E01F910F91FF90EF90DF9008951C
:100AA00080910604853509F469C0863530F48034B8
:100AB00059F0803509F09EC034C0813709F48DC0EB
:100AC0008E3709F097C092C0809117049927982F0C
:100AD0008827209118043327822B932B90931C0393
:100AE00080931B03809119049927982F88272091C0
:100AF0001A043327822B932B90931E0380931D039C
:100B000080911B049927982F882720911C04332754
:100B1000822B932B9093200380931F038AE598E008
:100B200059C0809117049927982F8827209118047D
:100B30003327822B932B9093FF038093FE038091A6
:100B400019049927982F882720911A043327822B7C
:100B5000932B909301048093000480911B049927A8
:100B6000982F882720911C043327822B932B909356
:100B70000304809302048EE798E02CC08091170450
:100B80009927982F8827209118043327822B932B9D
:100B90009093220480932104809119049927982F1F
:100BA000882720911A043327822B932B90932404B7
:100BB0008093230480911B049927982F88272091E4
:100BC0001C043327822B932B9093260480932504B7
:100BD00081E296E10E948102089520E335E740E03A
:100BE00050E061E085E00E94DE04089582E296E133
:100BF0000E94810208959A01AB01682F80E00E9453
:100C0000DE0499270895109266041092650446E662
:100C100050E060E070E081E00E94FB0508958FB72E
:100C2000F894992710922004119A109A129A8FBF63
:100C300040E050ED62E070E081E00E94FB058FB77C
:100C4000F894992710920C028FBF0E94990408957E
:100C500023E040E06FE182E00E94A3010895EF925B
:100C6000FF920F931F93873008F03DC0E09060041F
:100C7000F0906104009162041091630441E050E03F
:100C800060E070E004C0440F551F661F771F8A950F
:100C9000D2F7D801C70184239523A623B723009751
:100CA000A105B10501F12FB7F8943327DB01CA0183
:100CB00080959095A095B0958E219F21A023B1237A
:100CC0008093600490936104A0936204B0936304E2
:100CD0002FBF0097A105B10519F481E08093EF03C0
:100CE00081E090E002C080E090E01F910F91FF90C2
:100CF000EF9008958091F203813009F4CDC08130E6
:100D000018F0823009F0F8C081E08093F2030E946D
:100D100020038091070290910802A0910902B091EE
:100D20000A0280302BE4920720E0A20720E0B207FD
:100D300001F181302BE4920720E0A20720E0B20706
:100D400030F480589542A040B04049F50EC0803044
:100D500021EE920720E0A20720E0B20771F0805058
:100D6000924CA140B040D9F40CC01092C5008FE560
:100D70000BC01092C5008FE207C01092C5008FE033
:100D800003C01092C50087E08093C40082E0809386
:100D9000C00086E08093C20088ED8093C1008FB7C9
:100DA000F894282F33278091FD03813061F041E0D2
:100DB0004093FD032FBF8FB7F894992720910F021E
:100DC000213019F408C02FBF31C040930F028FBFEC
:100DD000222319F022C08FBF29C08AE892E00000C8
:100DE0000197E9F728E040E06FE182E00E94A3016B
:100DF00080E091E000000197E9F70E944D040E9415
:100E00006C040E94750488EC90E000000197E9F7FB
:100E10008CE695E10E94810209C02F9821E030E024
:100E200040E050E061E084E00E94DE0428EE33E020
:100E300040E050E060E081E00E94DE0410925F0438
:100E40000E94DA04429A8AE090E00E941B0210920B
:100E500011021092120210921302109214021092B8
:100E60006802589A599A8091B9008E7F8093B90090
:100E70008091B9008D7F8093B90088E48093B80099
:100E800085E48093BC0024EF31E040E050E061E075
:100E900086E00E94DE04089592E09093F20310929F
:100EA000C0001092C1001092C2008FB7F894282F92
:100EB00033278091FD038150823078F09093FD03B9
:100EC0002FBF80916F008F7D80936F00B59A0E9435
:100ED000B3040E9428062F9A01C02FBF81E00E9410
:100EE0002F060E94DA0485E00E942F06429885EAC8
:100EF00092E00E94810208958093F20308950E9477
:100F00007A06089589E180934602809106048093D1
:100F10004702809168028823E1F782E080936802AB
:100F20008FEF80938C0210928A0281E080938B0273
:100F30008091470280936A0282E38093690285EE82
:100F40008093BC00809168028230E1F380918C0232
:100F50008F3F31F080918C02803211F080918C02B1
:100F600010921302109214021092670290918D0257
:100F7000913208F090E2809168028823E1F781E0E5
:100F8000809368028FEF80938C0210928A029150B6
:100F900090938B029F5F83E38093690285EE809339
:100FA000BC00809168028130E1F380918A02891748
:100FB00010F490918A0220E00AC0E22FFF27DF019F
:100FC000A659BD4F8C91EA5DFD4F80832F5F291795
:100FD000A1F7892F9927582F10921102809312029E
:100FE00090E020E030E011C0951710F040E006C01E
:100FF000E92FFF27EA5DFD4F40819F5FE82FFF2724
:10100000E95EFB4F40832F5F3F4F822F591761F7F7
:101010009093110206C0E82FFF27E95EFB4F108274
:101020008F5F8630C0F380E595E00E94810281E009
:1010300090E008959091F803992311F480E40BC097
:10104000913031F480E5809306049093F40208C057
:10105000923051F485E58093060481E08093F40298
:1010600086E080938D020AC0943051F481E780932A
:10107000060481E08093F40210928D020E948207A0
:1010800083E08093F8030895FB0180819181909320
:1010900003038093020382819381909305038093DD
:1010A0000403848195819093070380930603109233
:1010B000140308956BE173E081E00E9444080895F1
:1010C0006BE173E080E00E9444080895FB01808199
:1010D00091819093FD028093FC0282819381909391
:1010E000FF028093FE028481958190930103809397
:1010F00000031092F8030E941A0808956EEF73E03F
:1011000081E00E94660808956EEF73E080E00E941F
:1011100066080895482F8FB7F89499273091F30304
:1011200021E02093F3038FBF332319F080E090E098
:1011300008952FB7F89433274093C6008091C000DC
:1011400080648093C0002FBF81E090E008951F93DA
:101150008FB7F894282F80915804882361F58091E7
:101160006B04992781FF08C08CEF93E090936F0385
:1011700080936E0380E41AC082FF0FC0E091F002FA
:10118000F091F102F0936F03E0936E0382E4809399
:10119000F302808199270A961DC083FF0CC088E066
:1011A00093E090936F0380936E038FEF8093F3022D
:1011B00081E090E00FC02FBF11E028C08FB7F894F6
:1011C000992728E0209358048FBF8DE992E10E946F
:1011D00081021CC090930A038093090381E08093ED
:1011E00058042FBF2FB7F894332710928F02109214
:1011F0008E0286E090E09093EA038093E9032FBF8C
:101200008EE70E948A08182F8130C1F6812F992716
:101210001F910895409104048FB7F894282F332725
:1012200090916B0491FD09C0926090936B04409380
:10123000FC032FBF0E94A70808952FBF08958FB702
:10124000F8942091200420FF03C0129A2E7F02C040
:10125000129821602093200499278FBF81E090E0AD
:10126000089510925F04FC018085873381F5109208
:1012700076036130C9F4809165049091660401960B
:1012800090936604809365048FB7F89420912004AE
:1012900021FF03C0119A2D7F02C011982260209374
:1012A000200499278FBF02C00E941F098091650406
:1012B000909166048D52914018F00E947A0607C002
:1012C00046E650E060E070E081E00E94FB0581E0CE
:1012D00090E008959FB7F8948091FD03883059F00D
:1012E00010926C03823011F460E009C060E083E08A
:1012F0008093FD0304C010926C0361E0F8CFE0918D
:10130000F603F091F70380818B508083892F992712
:101310008FBFCF010E94310908950E946A09089584
:101320001F93CF93DF9390912603992309F449C12A
:101330008091F202863019F48FEF8093F202E091EF
:10134000F202EF5FE093F202915090932603FF27A1
:10135000EB50FD4F8081282F3327273008F031C113
:10136000243009F40AC1253030F4222359F0213009
:1013700009F027C1F5C0253009F414C1263009F061
:1013800020C11BC11091F203113021F0123009F07D
:10139000E4C0D9C080917603882309F012C10E946D
:1013A0002F06109376031093F8030E941A082091D9
:1013B000FC023091FD02C901835C91408B589A4038
:1013C00030F0E091FA03F091FB03108A25C0C901C7
:1013D000825C91408558934030F4E091FA03F0919B
:1013E000FB03108B19C0C901865495408558934062
:1013F00030F4E091FA03F091FB0382E00CC02A5C28
:101400003840E091FA03F091FB032558334010F483
:1014100083E001C084E0808BC3E8D3E0D093FB037A
:10142000C093FA0380910B0390910C03A0910D03DC
:10143000B0910E038093830390938403A09385035C
:10144000B09386030196A11DB11D80930B03909369
:101450000C03A0930D03B0930E038091FC029091B6
:10146000FD0290938803809387038091FE02909100
:10147000FF0290938A0380938903809100039091E7
:10148000010390938C0380938B03809102039091CE
:10149000030390938E0380938D03809104039091B6
:1014A00005039093900380938F038091060390919E
:1014B000070390939203809391038091000290918F
:1014C0000102909395038093940380915F04882395
:1014D00041F581E080935F0487EC9CE00E948102EB
:1014E000882319F410925F041CC02A97D093230319
:1014F000C093220383E1809379038FEF9FEF909352
:10150000800380937F0387E38093810380910B02A4
:10151000809382038FB7F8942091200422FD09C0A4
:101520000BC046E650E060E070E081E00E94FB0501
:1015300014C0109A2B7F02C01098246020932004BE
:1015400099278FBF3EC08FB7F894992721E0209349
:101550000C028FBF0E947A0634C00E941F0931C05E
:10156000809174039091750390935B0480935A0467
:10157000109275031092740324C00E944D040E94BF
:101580006C040E94750488EC90E000000197E9F774
:101590008FB7F894992722E020930F028FBF0E9403
:1015A000B7040FC08EE78093060481E08093F402B5
:1015B00010928D020E94820704C080EA92E00E948D
:1015C0008102DF91CF911F9108952FB7F8948091F8
:1015D000140490911504AC01440F551F97FF04C0EB
:1015E0008BE090E148275927CA0101969093150492
:1015F0008093140433272FBF2091100330911103DF
:101600008227932708950F931F930FB7F8941127FC
:101610000E9494010FBF99271F910F9108950E9476
:10162000030B9927089529E040E06FE182E00E94D2
:10163000A3010895982F683018F080E090E0089595
:101640002FB7F894332715BC80916E008E7F80935E
:101650006E0080916E008D7F80936E0060932103F9
:1016600090936B0316BC97BDA99A80916E0082601F
:1016700080936E0014BC65BD2FBF81E090E008959B
:101680009B01AC01609315037093160380931703BD
:101690009093180381E080935E042F3F310541054C
:1016A000510521F018F064E08FEF02C064E0822F52
:1016B0000E941A0B0E94AB0481E090E008951F93F2
:1016C000CF93DF93182F0E947C04112379F48FB7F6
:1016D000F894992729E02093FD038FBF8DE899E0C6
:1016E0000E948102882309F048C036C080917203AD
:1016F000882329F1E091F603F091F7038681978121
:101700008F5F9F4FE1F08FB7F894992727E02093E0
:10171000FD0310926C038FBF8FB7F894C82FDD279D
:10172000809110028823D9F482E08093100268E24D
:1017300070E080E090E00E94400BCFBF1EC08FB7EA
:10174000F894992728E02093FD038FBF8DE899E056
:101750000E948102882389F40E946A090EC0CFBFCB
:101760008FB7F894992728E02093FD038FBF8DE869
:1017700099E00E948102882379F3DF91CF911F9134
:1017800008951F93BC018FEF6F3F780719F480E035
:1017900090E023C01FB7F89480911002882311F0C5
:1017A00020E016C081E0809310026115710531F4CC
:1017B00084EC9CE00E948102282F0AC0B4E0660FEE
:1017C000771FBA95E1F7882799270E94400B21E0FF
:1017D000812F99278FBF822F99271F9108950E94EB
:1017E000E50A8F70907001960E94C10B882381F4E6
:1017F0008FB7F894992729E02093FD038FBF8DE8D8
:1018000099E00E948102882361F40E946A09089588
:101810002FB7F8943327809112038F5F80931203C0
:101820002FBF0895CF93DF938FB7F8949927209116
:101830001002109210028FBF223009F471C02330C1
:1018400009F488C0213009F09AC09FB7F89430910C
:10185000FD0380915D04882319F420936C0320E03C
:10186000892F99278FBF323009F46BC0222309F0EA
:101870007BC021E047E060E888E00E94A30188EC9B
:1018800090E000000197E9F781E00E940F0B87FFCD
:1018900003C086FF63C00BC00E944D040E94750404
:1018A00088EC90E00000019709F458C0FBCF8FB797
:1018B000F894992726E02093FD038FBF0E94130B15
:1018C0008091F6039091F7030E944D026091F60318
:1018D0007091F7036F5F7F4F809171030E94310217
:1018E0002F9A00002F9880917103895F9FB7F89419
:1018F000C92FDD2790911002682F77279923B9F51A
:1019000083E080931002882799270E94400BCFBF65
:1019100036C000006150704016161706D4F31AC086
:101920008FB7F894282F3327422F9091FD039730DB
:1019300011F488E003C0923009F589E08093FD033B
:101940004FBF8DE899E00E9481028823C1F40E9474
:101950006A0915C081E00E945F0B11C08FB7F8942F
:10196000992710926C038FBF0E94EF0B08C0CFBF66
:1019700085E0660F771F8A95E1F7CECF2FBF81E014
:1019800090E0DF91CF9108950E94120C08950F937B
:101990001F93CF93DF93CDB7DEB722970FB6F8949E
:1019A000DEBF0FBECDBF0091220310912303F801CB
:1019B000868197818E37910599F48FB7F894282FF7
:1019C000332790916B0492FD7EC0946090936B04DA
:1019D0001093F1020093F0022FBF0E94A70869C084
:1019E000F80180818E31C0F48FB7F894282F332707
:1019F0008091FD03833079F484E08093FD032FBF51
:101A00006FB7F894F8018081855F808380917203BD
:101A1000882369F004C02FBF80E090E04AC0F8013D
:101A2000868197818F5F9F4F11F081E201C081E035
:101A3000F801818388E0F80182838091F0038F5F51
:101A40008093F00383838FEF9FEF958384832681B8
:101A5000378181E089831A8289819A81019719F0FF
:101A6000432F522F9A01F8013783268315A68081D0
:101A700080937103862F99278FBF0E94E50A8F708C
:101A8000907001960E94C10B282F9FB7F894109375
:101A9000F7030093F603813021F41092120385E0DE
:101AA00001C083E08093FD03892F99278FBF822F88
:101AB0009927882359F460E08091220390912303B1
:101AC0000E94310903C02FBF80E0F3CF22960FB6EA
:101AD000F894DEBF0FBECDBFDF91CF911F910F9164
:101AE000089520917403309175032F5F3F4F309319
:101AF0007503209374030895FC0180910B02818784
:101B0000CF010E94710D08951F920F920FB60F9290
:101B10001124DF92EF92FF920F931F932F933F9325
:101B20004F935F936F937F938F939F93AF93BF93E5
:101B3000EF93FF93CF93DF93CDB7DEB72997DEBF47
:101B4000CDBF80918600909187008FE00E94030BAB
:101B50009927898389818C748983898182FF0DC04B
:101B600080911002843049F41092100210925E04A9
:101B700080916E008D7F80936E00898183FF21C1EB
:101B80009091FD0380916C03882309F016C1809128
:101B90005D04882309F015C1923009F412C181E077
:101BA00080935D044091770350917803289880E2F8
:101BB0008EBD0DB407FEFDCF1EBC0DB407FEFDCFDC
:101BC0006EB5762F7F5FFA017083862F8350863241
:101BD00008F048C0DA0111961EBC0DB407FEFDCF17
:101BE0008EB58C93972F9250FD0120E030E01EBC03
:101BF00081912827022E2295207F2025032E322F27
:101C000022952F700226269532272327220F220F96
:101C1000220F20250DB407FEFDCF8EB58083915095
:101C200031F76250FD01E60FF11DDF0111961EBC78
:101C300081812827022E2295207F2025032E322FF6
:101C400022952F700226269532272327220F220F56
:101C5000220F20250DB407FEFDCF8EB5FD01818337
:101C6000232B21F0FA011082289A3CC0289AD72E03
:101C7000F5E0F717B8F50091770310917803F801B4
:101C800081819927877090708230910529F5809124
:101C9000FD03873039F593818091F003981711F592
:101CA00088E08093FD03E091F603F091F70381E073
:101CB00085A71092100210925E0480916E008D7FB5
:101CC00080936E0010925D048DE899E00E9481027D
:101CD000882309F076C003C0019721F406C00E9452
:101CE0006A096FC010925D046CC086E00E940F0B01
:101CF00087E00E940F0BF80182A7E0917703F09133
:101D00007803268137818091000290910102281783
:101D1000390749F5918580910B02981721F51381B8
:101D20000E9428060E94130B84E690E000000197B1
:101D3000E9F785E08C8382E08D831E821F83CE01CC
:101D400004960E944D02BE016B5F7F4F85E00E94AA
:101D500031022F9A00002F9880E991E0000001974E
:101D6000E9F70E947C04E0917703F09178032681E3
:101D7000378141E04A831B828A819B81019719F058
:101D8000E32EF22E97013783268344A7A091770391
:101D9000B0917803FD01ED0DF11D31978081FD01BA
:101DA00083A7E0917703F091780380818C50808342
:101DB0008BE294E10E94810204C09A3011F40E94E7
:101DC0007F04898186FF06C08091FD038A3011F46B
:101DD0000E947F042996F894DEBFCDBFDF91CF919A
:101DE000FF91EF91BF91AF919F918F917F916F91F3
:101DF0005F914F913F912F911F910F91FF90EF9025
:101E0000DF900F900FBE0F901F901895843018F43C
:101E10008A5F99270895843019F480E090E008954E
:101E20008B5F992708951F920F920FB60F9211247E
:101E3000DF92EF92FF920F931F932F933F934F9355
:101E40005F936F937F938F939F93AF93BF93CF9342
:101E5000DF93EF93FF938091C00087FFB8C100919B
:101E6000C60080915704823009F464C0833030F496
:101E7000882359F0813009F0A8C12CC0833009F4BF
:101E800092C0843009F0A1C14AC10E3709F09FC148
:101E90008091F9039927FC01EE0FFF1FE80FF91F4E
:101EA000EE0FFF1FE85FFB4F82819381892B09F0C2
:101EB0008EC1118210926A031092690310921A0364
:101EC000109219038481958190931F0480931E04BE
:101ED00081E02DC00E3709F47AC18091F90399276A
:101EE000FC01EE0FFF1FE80FF91FEE0FFF1FE85F69
:101EF000FB4F00838091690390916A03ECECF0E062
:101F0000202F2927220FF11DE20FF11DC895982FD0
:101F1000802D3196C895902590936A03809369032C
:101F2000013421F0023409F050C14DC182E08093A8
:101F300057044DC10E3709F448C12091F9030D37FC
:101F400071F4822F9927FC01EE0FFF1FE80FF91F94
:101F5000EE0FFF1FE85FFB4F80E2818338C1822FC5
:101F60009927FC01EE0FFF1FE80FF91FEE0FFF1F6F
:101F7000E85FFB4F218120272183809169039091A5
:101F80006A03ECECF0E02927220FF11DE20FF11DAE
:101F9000C895982F802D3196C895902590936A0307
:101FA0008093690310C1C0911903D0911A03CC32F8
:101FB000D10508F0B6C00D3711F484E0B8CF0E3764
:101FC00009F075C0C230D10508F457C0E0901E0476
:101FD000F0901F048C2F81500E94060FF701E80F2C
:101FE000F11D00818C2F82500E94060FE80EF11C1B
:101FF000F70180811127102F00279927082B192B13
:102000008091690390916A032091F90308171907D9
:1020100039F5822F9927FC01EE0FFF1FE80FF91FFA
:10202000EE0FFF1FE85FFB4F2297D383C28383ED40
:1020300093E10E9481028091F9038F5F8170809308
:10204000F9039927FC01EE0FFF1FE80FF91FEE0FB0
:10205000FF1FE85FFB4F82819381892B21F01CC019
:10206000822F99270DC08481958190931F048093BE
:102070001E0481E08093570411C08091F9039927D1
:10208000FC01EE0FFF1FE80FF91FEE0FFF1FE85FC7
:10209000FB4F1382128211821092570410926A032E
:1020A0001092690310921A031092190390C08C2F9A
:1020B0000E94060FE0911E04F0911F04E80FF11D2D
:1020C0000083C0911903D0911A03C230D10508F1E1
:1020D0009E012250822F0E94060FE0911E04F09173
:1020E0001F04E80FF11D20818091690390916A031C
:1020F000ECECF0E02927220FF11DE20FF11DC8954D
:10210000982F802D3196C895902590936A038093DF
:1021100069032196D0931A03C093190358C00E3750
:10212000C1F410926A031092690310921A0310927C
:1021300019038091F9039927FC01EE0FFF1FE80FA7
:10214000F91FEE0FFF1FE85FFB4F1382128211820F
:102150003CC080E20827809119030E94060FE0919D
:102160001E04F0911F04E80FF11D0083C0911903B4
:10217000D0911A03C230D10508F1FE01E2508E2F32
:102180000E94060FE0911E04F0911F04E80FF11D5C
:1021900020818091690390916A03ECECF0E029279B
:1021A000220FF11DE20FF11DC895982F802D319659
:1021B000C895902590936A03809369032196D093E4
:1021C0001A03C093190383E0B2CE10925704FF9113
:1021D000EF91DF91CF91BF91AF919F918F917F91BF
:1021E0006F915F914F913F912F911F910F91FF90B0
:1021F000EF90DF900F900FBE0F901F901895382F23
:102200008D57823070F48FB7F89499272091580435
:102210002093160423E02093580430935C048FBF6E
:102220003DE7832F0E948A089927089578941F928A
:102230000F920FB60F9211242F933F934F935F93FA
:102240006F937F938F939F93AF93BF93EF93FF937E
:102250008FB7F89499272091F3031092F3038FBF5F
:10226000222309F4B9C080915804873031F41092C8
:1022700058048DE992E10E948102809158048330D4
:1022800009F47CC0843030F4813071F0823009F080
:10229000A3C026C0853009F483C0853008F47AC015
:1022A000863009F489C098C082E0809358048091F8
:1022B000F30220918E0230918F02ECECF0E0982F27
:1022C0009327990FF11DE90FF11DC895322F202D8D
:1022D0003196C895302530938F0220938E0270C0BE
:1022E0008091F302E0916E03F0916F03803431F03E
:1022F0008091E9039091EA03E80FF91F40818091F2
:102300008E0290918F02ECECF0E0242F2927220F0F
:10231000F11DE20FF11DC895982F802D3196C895BB
:10232000902590938F0280938E028091E903909183
:10233000EA0301969093EA038093E9038A309105BA
:1023400029F41092EA031092E90308C0019731F4CE
:102350008AE090E09093EA038093E9032091E903F7
:102360003091EA038091090390910A0328173907F5
:1023700018F084E080935804842F1BC080915C0483
:1023800090E289270E948A08982F809116048093F2
:10239000580419C080918E0295E09093580409C0AA
:1023A00080918E0290918F02892F992726E02093A9
:1023B00058040E94FF1006C087E0809358048EE7FF
:1023C0000E948A08982F913039F088E08093580451
:1023D0008DE992E10E948102FF91EF91BF91AF914F
:1023E0009F918F917F916F915F914F913F912F912D
:1023F0000F900FBE0F901F90189585ED8093BC0035
:102400008091BC0084FDFCCF1092680208957894FE
:102410001F920F920FB60F9211242F933F934F9359
:102420005F936F937F938F939F93AF93BF93EF933C
:10243000FF939FB7F89480910704882351F080910F
:10244000F5038093210385BD80916B0387BD1092B6
:102450000704892F99278FBF8FB7F8949927209168
:102460001503309116038FBF2F3F310580F4809103
:102470006E008D7F80936E008FB7F894992710922D
:102480005E048FBF0E94120C0E94AB0414C0832F05
:1024900099276FB7F89477279C01442755272093F5
:1024A00015033093160340931703509318036FBF1F
:1024B00064E00E941A0BFF91EF91BF91AF919F9141
:1024C0008F917F916F915F914F913F912F910F90DD
:1024D0000FBE0F901F90189578941F920F920FB611
:1024E0000F9211242F938F939F932FB7F89480917D
:1024F000E8038823B9F080916D0380937303809182
:102500006D03886080936D0380916D0380938100DB
:102510008091690490916A04909389008093880067
:102520001092E803822F99278FBF9F918F912F914F
:102530000F900FBE0F901F9018959FB7F894809141
:102540005804883011F061E003C01092580460E034
:10255000892F99278FBF8091F30230916B048034CB
:1025600041F48FB7F894992722E0322730936B0417
:1025700015C08FB7F894992724E0322730936B0465
:102580008FBF8091F0029091F1020E9431098FB7C4
:10259000F89499271092F1021092F0028FBF0E94D6
:1025A000A708089578941F920F920FB60F921124E6
:1025B0007F928F929F92AF92BF92CF92DF92EF92D3
:1025C000FF920F931F932F933F934F935F936F93BC
:1025D0007F938F939F93AF93BF93EF93FF93CF938B
:1025E000DF93CDB7DEB72897F894DEBF7894CDBFE0
:1025F0009FB7F89480912703882361F08091EB03C3
:1026000080931D048093B100809168038093B30090
:1026100010922703892F99278FBF7FB6F894809156
:10262000EC039091ED03892B21F48CE394E10E945B
:1026300081028091EC039091ED032091B30001960B
:10264000820F911D9093ED038093EC038091B30072
:102650009927AA27BB2789839A83AB83BC831D82D2
:102660001E821F82188680901E0290901F02A090EA
:102670002002B0902102C0902202D0902302E0906C
:102680002402F09025020981080D81E0081508F068
:1026900080E01A81190DA1E0191508F0A0E0810F62
:1026A00091E0811708F090E0A92B182F2B812A0DBB
:1026B000B1E02A1508F0B0E08A2F820F91E082176E
:1026C00008F090E0B92B282F3C813B0DA1E03B1591
:1026D00008F0A0E08B2F830F91E0831708F090E0C3
:1026E000A92B382F4D814C0DB1E04C1508F0B0E00E
:1026F0008A2F840F91E0841708F090E0B92B482FBF
:102700005E815D0DA1E05D1508F0A0E08B2F850FC7
:1027100091E0851708F090E0A92B582F6F816E0D7E
:10272000F1E06E1508F0F0E09A2F960F81E0961711
:1027300008F080E08F2B78857F0D870F00931E02B5
:1027400010931F0220932002309321024093220213
:10275000509323029093240280932502872D99277A
:102760008FBF2896F894DEBFCDBFDF91CF91FF9148
:10277000EF91BF91AF919F918F917F916F915F91F9
:102780004F913F912F911F910F91FF90EF90DF900C
:10279000CF90BF90AF909F908F907F900F900FBE83
:1027A0000F901F9018950F931F93CF93DF939091E5
:1027B000590486E0989F80011124085F1B4FF8019F
:1027C000C481D58182819381059700F18081813414
:1027D00029F0823471F0803499F418C081E08CA71C
:1027E000F8018181809304048AE099E00E948102CB
:1027F00002C081E08CA7CE010E947C0DEC0106C0D6
:10280000809308038FE194E10E9481029FB7F894BE
:10281000209719F0F801D583C483F801138212823E
:102820001182809159048F5F817080935904892FA0
:1028300099278FBFDF91CF911F910F9108952FB7E7
:10284000F894332780916B04886080936B042FBFCA
:102850000E94A708089580917703909178030E94C1
:10286000710D2FB7F89433279093780380937703F3
:1028700010925D042FBF08959F92AF92BF92CF92A6
:10288000DF92EF92FF920F931F93CF93DF9381E03C
:102890008093EF038FB7F8949927A090EC03B09042
:1028A000ED031092ED031092EC038FBF8091600452
:1028B00090916104A0916204B09163040097A10516
:1028C000B10509F494C0C9EAD3E0CC24DD249C2CE2
:1028D00031E0E32EF12C012D112D0C2C04C0EE0C57
:1028E000FF1C001F111F0A94D2F780916004909181
:1028F0006104A0916204B09163048E219F21A02302
:10290000B1230097A105B10509F468C08D819E81AE
:10291000AF81B885950144275527821B930BA40BE3
:10292000B50B8D839E83AF83B8870397A105B1054F
:102930000CF054C080E999E00E948102882309F4D8
:1029400044C08881882389F48D819E81AF81B885B8
:1029500029813A814B815C81820F931FA41FB51F8F
:102960008D839E83AF83B8871AC0A80197012095F5
:102970003095409550958091600490916104A091AC
:102980006204B091630482239323A423B52380932C
:10299000600490936104A0936204B09363048091F7
:1029A0006404863019F48FEF80936404E09164042A
:1029B000EF5FE0936404809126038F5F809326038A
:1029C000FF27EB50FD4F908209C0809105049927A5
:1029D000AA27BB278D839E83AF83B8870894C11C29
:1029E000D11C299687E0C816D10409F070CF8FB7A3
:1029F000F89499272091EC033091ED038FBF232B9E
:102A000009F05EC0E0906004F090610400916204FF
:102A100010916304E114F1040105110509F443C0A8
:102A200026EE922E60E070E0EEEAF3E091E0A92E4F
:102A3000B12CC12CD12CD601C501062E04C0880FA3
:102A4000991FAA1FBB1F0A94D2F78E219F21A02392
:102A5000B1230097A105B10571F020813181428138
:102A60005381892D9927AA27BB27281739074A0799
:102A70005B070CF4922E6F5F7F4F399667307105BC
:102A8000D1F68FB7F894282F33279091B2009D5F2D
:102A9000991508F4992D909305049093B300109222
:102AA000EF032FBF0BC08FB7F894992726EE209322
:102AB00005042093B3001092EF038FBF0E94AF0470
:102AC000DF91CF911F910F91FF90EF90DF90CF900A
:102AD000BF90AF909F9008958FB7F894992722E008
:102AE00020930F028FBF0E94B70408951F920F9288
:102AF0000FB60F9211242F933F934F935F936F93D1
:102B00007F938F939F93AF93BF93EF93FF938091A6
:102B1000B9009927887F907088329105B1F1893288
:102B20009105A4F48031910559F1813191053CF46E
:102B3000009709F471C0089709F072C021C088316C
:102B4000910519F1809709F06BC036C0803491056A
:102B500009F44DC0813491053CF48033910571F145
:102B6000C89709F05DC02EC080359105A1F1883568
:102B7000910509F444C08834910509F051C04EC054
:102B8000809169028093BB0013C090918A0280916A
:102B90008B02981708F042C090918A02E92FFF2714
:102BA000E659FD4F80818093BB009F5F90938A021E
:102BB00085EC8093BC0034C080E201C080E3809348
:102BC0008C022CC088E380938C0285EC8093BC003F
:102BD0001092680225C080918A029091BB00E82F74
:102BE000FF27E659FD4F90838F5F80938A02909173
:102BF0008A0280918B029817D8F285E8DACF80910B
:102C00008A029091BB00E82FFF27E659FD4F908381
:102C10008F5F80938A0202C010928C020E94FD1185
:102C2000FF91EF91BF91AF919F918F917F916F91A4
:102C30005F914F913F912F910F900FBE0F901F907A
:082C4000189508950895FFCFD7
:0E2C48000100902407000B00E100007D010058
:00000001FF
